{
  "contractName": "OptionController",
  "abi": [
    {
      "inputs": [
        {
          "internalType": "address",
          "name": "_uniswapOption",
          "type": "address"
        },
        {
          "internalType": "address",
          "name": "_strikeAsset",
          "type": "address"
        },
        {
          "internalType": "address",
          "name": "_underlyingAsset",
          "type": "address"
        }
      ],
      "payable": false,
      "stateMutability": "nonpayable",
      "type": "constructor"
    },
    {
      "anonymous": false,
      "inputs": [
        {
          "indexed": true,
          "internalType": "address",
          "name": "user",
          "type": "address"
        }
      ],
      "name": "Emergency",
      "type": "event"
    },
    {
      "anonymous": false,
      "inputs": [
        {
          "indexed": true,
          "internalType": "address",
          "name": "user",
          "type": "address"
        }
      ],
      "name": "Pause",
      "type": "event"
    },
    {
      "anonymous": false,
      "inputs": [
        {
          "indexed": false,
          "internalType": "address",
          "name": "a",
          "type": "address"
        },
        {
          "indexed": false,
          "internalType": "address",
          "name": "b",
          "type": "address"
        }
      ],
      "name": "Test",
      "type": "event"
    },
    {
      "anonymous": false,
      "inputs": [
        {
          "indexed": true,
          "internalType": "address",
          "name": "user",
          "type": "address"
        }
      ],
      "name": "Unpause",
      "type": "event"
    },
    {
      "constant": true,
      "inputs": [],
      "name": "ORDER_OPTION_CALL",
      "outputs": [
        {
          "internalType": "uint256",
          "name": "",
          "type": "uint256"
        }
      ],
      "payable": false,
      "stateMutability": "view",
      "type": "function"
    },
    {
      "constant": true,
      "inputs": [],
      "name": "ORDER_OPTION_PUT",
      "outputs": [
        {
          "internalType": "uint256",
          "name": "",
          "type": "uint256"
        }
      ],
      "payable": false,
      "stateMutability": "view",
      "type": "function"
    },
    {
      "constant": true,
      "inputs": [],
      "name": "STATUS_EMERGENCY",
      "outputs": [
        {
          "internalType": "uint8",
          "name": "",
          "type": "uint8"
        }
      ],
      "payable": false,
      "stateMutability": "view",
      "type": "function"
    },
    {
      "constant": true,
      "inputs": [],
      "name": "STATUS_NORMAL",
      "outputs": [
        {
          "internalType": "uint8",
          "name": "",
          "type": "uint8"
        }
      ],
      "payable": false,
      "stateMutability": "view",
      "type": "function"
    },
    {
      "constant": true,
      "inputs": [],
      "name": "core",
      "outputs": [
        {
          "internalType": "address",
          "name": "",
          "type": "address"
        }
      ],
      "payable": false,
      "stateMutability": "view",
      "type": "function"
    },
    {
      "constant": true,
      "inputs": [
        {
          "internalType": "uint256",
          "name": "",
          "type": "uint256"
        }
      ],
      "name": "deadlines",
      "outputs": [
        {
          "internalType": "uint256",
          "name": "",
          "type": "uint256"
        }
      ],
      "payable": false,
      "stateMutability": "view",
      "type": "function"
    },
    {
      "constant": true,
      "inputs": [
        {
          "internalType": "uint256",
          "name": "",
          "type": "uint256"
        }
      ],
      "name": "inDeadline",
      "outputs": [
        {
          "internalType": "bool",
          "name": "",
          "type": "bool"
        }
      ],
      "payable": false,
      "stateMutability": "view",
      "type": "function"
    },
    {
      "constant": true,
      "inputs": [
        {
          "internalType": "uint256",
          "name": "",
          "type": "uint256"
        }
      ],
      "name": "inTargets",
      "outputs": [
        {
          "internalType": "bool",
          "name": "",
          "type": "bool"
        }
      ],
      "payable": false,
      "stateMutability": "view",
      "type": "function"
    },
    {
      "constant": true,
      "inputs": [],
      "name": "optionAmountPerStrike",
      "outputs": [
        {
          "internalType": "uint256",
          "name": "",
          "type": "uint256"
        }
      ],
      "payable": false,
      "stateMutability": "view",
      "type": "function"
    },
    {
      "constant": true,
      "inputs": [
        {
          "internalType": "bytes32",
          "name": "",
          "type": "bytes32"
        }
      ],
      "name": "options",
      "outputs": [
        {
          "internalType": "uint256",
          "name": "deadline",
          "type": "uint256"
        },
        {
          "internalType": "uint256",
          "name": "target",
          "type": "uint256"
        },
        {
          "internalType": "uint256",
          "name": "optionAmountPerStrike",
          "type": "uint256"
        },
        {
          "internalType": "address",
          "name": "optionAddress",
          "type": "address"
        },
        {
          "internalType": "address",
          "name": "underlyingAssetAddress",
          "type": "address"
        },
        {
          "internalType": "uint256",
          "name": "orderDirection",
          "type": "uint256"
        }
      ],
      "payable": false,
      "stateMutability": "view",
      "type": "function"
    },
    {
      "constant": true,
      "inputs": [],
      "name": "safuAddress",
      "outputs": [
        {
          "internalType": "address",
          "name": "",
          "type": "address"
        }
      ],
      "payable": false,
      "stateMutability": "view",
      "type": "function"
    },
    {
      "constant": true,
      "inputs": [],
      "name": "safuBalance",
      "outputs": [
        {
          "internalType": "int256",
          "name": "",
          "type": "int256"
        }
      ],
      "payable": false,
      "stateMutability": "view",
      "type": "function"
    },
    {
      "constant": true,
      "inputs": [],
      "name": "strikeAsset",
      "outputs": [
        {
          "internalType": "address",
          "name": "",
          "type": "address"
        }
      ],
      "payable": false,
      "stateMutability": "view",
      "type": "function"
    },
    {
      "constant": true,
      "inputs": [],
      "name": "systemPaused",
      "outputs": [
        {
          "internalType": "bool",
          "name": "",
          "type": "bool"
        }
      ],
      "payable": false,
      "stateMutability": "view",
      "type": "function"
    },
    {
      "constant": true,
      "inputs": [],
      "name": "systemStatus",
      "outputs": [
        {
          "internalType": "uint8",
          "name": "",
          "type": "uint8"
        }
      ],
      "payable": false,
      "stateMutability": "view",
      "type": "function"
    },
    {
      "constant": true,
      "inputs": [
        {
          "internalType": "uint256",
          "name": "",
          "type": "uint256"
        }
      ],
      "name": "targets",
      "outputs": [
        {
          "internalType": "uint256",
          "name": "",
          "type": "uint256"
        }
      ],
      "payable": false,
      "stateMutability": "view",
      "type": "function"
    },
    {
      "constant": true,
      "inputs": [],
      "name": "underlyingAsset",
      "outputs": [
        {
          "internalType": "address",
          "name": "",
          "type": "address"
        }
      ],
      "payable": false,
      "stateMutability": "view",
      "type": "function"
    },
    {
      "constant": true,
      "inputs": [],
      "name": "uniswapFactoryAddress",
      "outputs": [
        {
          "internalType": "address",
          "name": "",
          "type": "address"
        }
      ],
      "payable": false,
      "stateMutability": "view",
      "type": "function"
    },
    {
      "constant": true,
      "inputs": [],
      "name": "uniswapOption",
      "outputs": [
        {
          "internalType": "address",
          "name": "",
          "type": "address"
        }
      ],
      "payable": false,
      "stateMutability": "view",
      "type": "function"
    },
    {
      "constant": true,
      "inputs": [],
      "name": "uniswapSpots",
      "outputs": [
        {
          "internalType": "address",
          "name": "",
          "type": "address"
        }
      ],
      "payable": false,
      "stateMutability": "view",
      "type": "function"
    },
    {
      "constant": false,
      "inputs": [
        {
          "internalType": "uint256",
          "name": "_optionAmountPerStrike",
          "type": "uint256"
        }
      ],
      "name": "setOptionAmountPerStrike",
      "outputs": [],
      "payable": false,
      "stateMutability": "nonpayable",
      "type": "function"
    },
    {
      "constant": false,
      "inputs": [
        {
          "internalType": "address",
          "name": "_uniswapOption",
          "type": "address"
        }
      ],
      "name": "setUniswapOption",
      "outputs": [],
      "payable": false,
      "stateMutability": "nonpayable",
      "type": "function"
    },
    {
      "constant": false,
      "inputs": [
        {
          "internalType": "address",
          "name": "_uniswapSpots",
          "type": "address"
        }
      ],
      "name": "setUniswapSpots",
      "outputs": [],
      "payable": false,
      "stateMutability": "nonpayable",
      "type": "function"
    },
    {
      "constant": false,
      "inputs": [
        {
          "internalType": "address",
          "name": "_strikeAsset",
          "type": "address"
        }
      ],
      "name": "setStrikeAsset",
      "outputs": [],
      "payable": false,
      "stateMutability": "nonpayable",
      "type": "function"
    },
    {
      "constant": false,
      "inputs": [
        {
          "internalType": "address",
          "name": "_underlyingAsset",
          "type": "address"
        }
      ],
      "name": "setUnderlyingAsset",
      "outputs": [],
      "payable": false,
      "stateMutability": "nonpayable",
      "type": "function"
    },
    {
      "constant": false,
      "inputs": [
        {
          "internalType": "uint256[]",
          "name": "_deadlines",
          "type": "uint256[]"
        }
      ],
      "name": "setDeadline",
      "outputs": [],
      "payable": false,
      "stateMutability": "nonpayable",
      "type": "function"
    },
    {
      "constant": false,
      "inputs": [
        {
          "internalType": "uint256[]",
          "name": "_target",
          "type": "uint256[]"
        }
      ],
      "name": "setTarget",
      "outputs": [],
      "payable": false,
      "stateMutability": "nonpayable",
      "type": "function"
    },
    {
      "constant": true,
      "inputs": [],
      "name": "getDeadlines",
      "outputs": [
        {
          "internalType": "uint256[]",
          "name": "",
          "type": "uint256[]"
        }
      ],
      "payable": false,
      "stateMutability": "view",
      "type": "function"
    },
    {
      "constant": true,
      "inputs": [],
      "name": "getTargets",
      "outputs": [
        {
          "internalType": "uint256[]",
          "name": "",
          "type": "uint256[]"
        }
      ],
      "payable": false,
      "stateMutability": "view",
      "type": "function"
    },
    {
      "constant": true,
      "inputs": [],
      "name": "getOptionAmountPerStrike",
      "outputs": [
        {
          "internalType": "uint256",
          "name": "",
          "type": "uint256"
        }
      ],
      "payable": false,
      "stateMutability": "view",
      "type": "function"
    },
    {
      "constant": false,
      "inputs": [
        {
          "internalType": "uint256",
          "name": "_deadline",
          "type": "uint256"
        },
        {
          "internalType": "uint256",
          "name": "_target",
          "type": "uint256"
        },
        {
          "internalType": "uint256",
          "name": "_expirationBlockNumber",
          "type": "uint256"
        }
      ],
      "name": "setExpirationBlockNumber",
      "outputs": [],
      "payable": false,
      "stateMutability": "nonpayable",
      "type": "function"
    },
    {
      "constant": false,
      "inputs": [
        {
          "internalType": "uint256",
          "name": "_deadline",
          "type": "uint256"
        },
        {
          "internalType": "uint256",
          "name": "_target",
          "type": "uint256"
        }
      ],
      "name": "createOption",
      "outputs": [],
      "payable": true,
      "stateMutability": "payable",
      "type": "function"
    },
    {
      "constant": false,
      "inputs": [
        {
          "internalType": "uint256",
          "name": "_deadline",
          "type": "uint256"
        },
        {
          "internalType": "uint256",
          "name": "_target",
          "type": "uint256"
        },
        {
          "internalType": "uint256",
          "name": "_optionAmount",
          "type": "uint256"
        }
      ],
      "name": "redeemOption",
      "outputs": [],
      "payable": false,
      "stateMutability": "nonpayable",
      "type": "function"
    },
    {
      "constant": false,
      "inputs": [
        {
          "internalType": "uint256",
          "name": "_deadline",
          "type": "uint256"
        },
        {
          "internalType": "uint256",
          "name": "_target",
          "type": "uint256"
        },
        {
          "internalType": "uint256",
          "name": "_price",
          "type": "uint256"
        }
      ],
      "name": "exercise",
      "outputs": [],
      "payable": false,
      "stateMutability": "nonpayable",
      "type": "function"
    },
    {
      "constant": true,
      "inputs": [
        {
          "internalType": "uint256",
          "name": "_deadline",
          "type": "uint256"
        },
        {
          "internalType": "uint256",
          "name": "_target",
          "type": "uint256"
        }
      ],
      "name": "getOptionAddress",
      "outputs": [
        {
          "internalType": "address",
          "name": "",
          "type": "address"
        }
      ],
      "payable": false,
      "stateMutability": "view",
      "type": "function"
    },
    {
      "constant": true,
      "inputs": [
        {
          "internalType": "uint256",
          "name": "_deadline",
          "type": "uint256"
        },
        {
          "internalType": "uint256",
          "name": "_target",
          "type": "uint256"
        }
      ],
      "name": "getOptionUnderlyingAsset",
      "outputs": [
        {
          "internalType": "address",
          "name": "",
          "type": "address"
        }
      ],
      "payable": false,
      "stateMutability": "view",
      "type": "function"
    },
    {
      "constant": true,
      "inputs": [
        {
          "internalType": "uint256",
          "name": "_deadline",
          "type": "uint256"
        },
        {
          "internalType": "uint256",
          "name": "_target",
          "type": "uint256"
        },
        {
          "internalType": "address",
          "name": "_user",
          "type": "address"
        }
      ],
      "name": "getOptionBalance",
      "outputs": [
        {
          "internalType": "uint256",
          "name": "",
          "type": "uint256"
        }
      ],
      "payable": false,
      "stateMutability": "view",
      "type": "function"
    },
    {
      "constant": true,
      "inputs": [
        {
          "internalType": "uint256",
          "name": "_deadline",
          "type": "uint256"
        },
        {
          "internalType": "uint256",
          "name": "_target",
          "type": "uint256"
        }
      ],
      "name": "getOptionLPAddress",
      "outputs": [
        {
          "internalType": "address",
          "name": "",
          "type": "address"
        }
      ],
      "payable": false,
      "stateMutability": "view",
      "type": "function"
    },
    {
      "constant": true,
      "inputs": [
        {
          "internalType": "uint256",
          "name": "_deadline",
          "type": "uint256"
        },
        {
          "internalType": "uint256",
          "name": "_target",
          "type": "uint256"
        },
        {
          "internalType": "address",
          "name": "_user",
          "type": "address"
        }
      ],
      "name": "getOptionLPBalance",
      "outputs": [
        {
          "internalType": "uint256",
          "name": "",
          "type": "uint256"
        }
      ],
      "payable": false,
      "stateMutability": "view",
      "type": "function"
    },
    {
      "constant": false,
      "inputs": [
        {
          "internalType": "uint256",
          "name": "_deadline",
          "type": "uint256"
        },
        {
          "internalType": "uint256",
          "name": "_target",
          "type": "uint256"
        },
        {
          "internalType": "uint256",
          "name": "_optionDesired",
          "type": "uint256"
        },
        {
          "internalType": "uint256",
          "name": "_underlyingAssetDesired",
          "type": "uint256"
        },
        {
          "internalType": "uint256",
          "name": "_optionMin",
          "type": "uint256"
        },
        {
          "internalType": "uint256",
          "name": "_underlyingAssetMin",
          "type": "uint256"
        }
      ],
      "name": "addLiquidity",
      "outputs": [
        {
          "internalType": "uint256",
          "name": "amountA",
          "type": "uint256"
        },
        {
          "internalType": "uint256",
          "name": "amountB",
          "type": "uint256"
        },
        {
          "internalType": "uint256",
          "name": "liquidity",
          "type": "uint256"
        }
      ],
      "payable": false,
      "stateMutability": "nonpayable",
      "type": "function"
    },
    {
      "constant": false,
      "inputs": [
        {
          "internalType": "uint256",
          "name": "_deadline",
          "type": "uint256"
        },
        {
          "internalType": "uint256",
          "name": "_target",
          "type": "uint256"
        },
        {
          "internalType": "uint256",
          "name": "_liquidity",
          "type": "uint256"
        },
        {
          "internalType": "uint256",
          "name": "_optionMin",
          "type": "uint256"
        },
        {
          "internalType": "uint256",
          "name": "_underlyingAssetMin",
          "type": "uint256"
        }
      ],
      "name": "revomeLiquidity",
      "outputs": [
        {
          "internalType": "uint256",
          "name": "amountA",
          "type": "uint256"
        },
        {
          "internalType": "uint256",
          "name": "amountB",
          "type": "uint256"
        }
      ],
      "payable": false,
      "stateMutability": "nonpayable",
      "type": "function"
    },
    {
      "constant": false,
      "inputs": [
        {
          "internalType": "uint256",
          "name": "_deadline",
          "type": "uint256"
        },
        {
          "internalType": "uint256",
          "name": "_target",
          "type": "uint256"
        },
        {
          "internalType": "uint256",
          "name": "_type",
          "type": "uint256"
        },
        {
          "internalType": "uint256",
          "name": "_amountIn",
          "type": "uint256"
        },
        {
          "internalType": "uint256",
          "name": "_amountOutMin",
          "type": "uint256"
        }
      ],
      "name": "swap",
      "outputs": [
        {
          "internalType": "uint256[]",
          "name": "amounts",
          "type": "uint256[]"
        }
      ],
      "payable": false,
      "stateMutability": "nonpayable",
      "type": "function"
    },
    {
      "constant": true,
      "inputs": [
        {
          "internalType": "uint256",
          "name": "_deadline",
          "type": "uint256"
        },
        {
          "internalType": "uint256",
          "name": "_target",
          "type": "uint256"
        },
        {
          "internalType": "uint256",
          "name": "_amountOut",
          "type": "uint256"
        }
      ],
      "name": "getOptionIn",
      "outputs": [
        {
          "internalType": "uint256",
          "name": "d",
          "type": "uint256"
        }
      ],
      "payable": false,
      "stateMutability": "view",
      "type": "function"
    },
    {
      "constant": true,
      "inputs": [
        {
          "internalType": "uint256",
          "name": "_deadline",
          "type": "uint256"
        },
        {
          "internalType": "uint256",
          "name": "_target",
          "type": "uint256"
        },
        {
          "internalType": "uint256",
          "name": "_amountIn",
          "type": "uint256"
        }
      ],
      "name": "getOptionOut",
      "outputs": [
        {
          "internalType": "uint256",
          "name": "d",
          "type": "uint256"
        }
      ],
      "payable": false,
      "stateMutability": "view",
      "type": "function"
    },
    {
      "constant": true,
      "inputs": [
        {
          "internalType": "uint256",
          "name": "_deadline",
          "type": "uint256"
        },
        {
          "internalType": "uint256",
          "name": "_target",
          "type": "uint256"
        },
        {
          "internalType": "uint256",
          "name": "_amountOut",
          "type": "uint256"
        }
      ],
      "name": "getUnderlyingIn",
      "outputs": [
        {
          "internalType": "uint256",
          "name": "d",
          "type": "uint256"
        }
      ],
      "payable": false,
      "stateMutability": "view",
      "type": "function"
    },
    {
      "constant": true,
      "inputs": [
        {
          "internalType": "uint256",
          "name": "_deadline",
          "type": "uint256"
        },
        {
          "internalType": "uint256",
          "name": "_target",
          "type": "uint256"
        },
        {
          "internalType": "uint256",
          "name": "_amountIn",
          "type": "uint256"
        }
      ],
      "name": "getUnderlyingOut",
      "outputs": [
        {
          "internalType": "uint256",
          "name": "d",
          "type": "uint256"
        }
      ],
      "payable": false,
      "stateMutability": "view",
      "type": "function"
    },
    {
      "constant": false,
      "inputs": [],
      "name": "pause",
      "outputs": [],
      "payable": false,
      "stateMutability": "nonpayable",
      "type": "function"
    },
    {
      "constant": false,
      "inputs": [],
      "name": "unpause",
      "outputs": [],
      "payable": false,
      "stateMutability": "nonpayable",
      "type": "function"
    },
    {
      "constant": false,
      "inputs": [],
      "name": "setEmergency",
      "outputs": [],
      "payable": false,
      "stateMutability": "nonpayable",
      "type": "function"
    }
  ],
  "bytecode": "0x60806040526000805461ffff60a01b19169055600560035534801561002357600080fd5b5060405161504f38038061504f8339818101604052606081101561004657600080fd5b508051602082015160409092015160048054336001600160a01b0319918216179091556009805482166001600160a01b0394851617905560088054821694841694909417909355600780549093169116179055614fa7806100a86000396000f3fe608060405260043610620002ef5760003560e01c80638cb67b3b1162000199578063b66a5e4c11620000f1578063e0908e9c11620000a3578063f27d41651162000079578063f27d41651462000c7d578063f2f4eb261462000cb1578063fd16381d1462000cc9578063fed7ac9f1462000ce157620002ef565b8063e0908e9c1462000b4b578063e5f14e091462000c00578063e97d6a261462000c3a57620002ef565b8063b66a5e4c1462000a05578063befcd7ed1462000a1d578063c0df78f61462000a7c578063c3598a001462000ab3578063c45c5c301462000aed578063d2801af81462000b3357620002ef565b80639d2f83f0116200014b5780639d2f83f01462000912578063a20de338146200092a578063a8dd9fcb146200096d578063aa50bec11462000985578063b025cc4514620009bf578063b5b5dcbc14620009ed57620002ef565b80638cb67b3b14620007705780638ff8a1a0146200079e5780639403af1314620007d5578063946f0ecc146200088a5780639611d4da14620008b057806396ec71ff14620008de57620002ef565b806361b786c8116200024d5780637158da7c11620001ff5780637158da7c146200067d5780637e4536ed14620006955780638456cb5914620006cc5780638479cefc14620006e45780638ae6c7f114620006fc5780638c760300146200073657620002ef565b806361b786c8146200051157806362c4c5fb146200053f57806363fe3b5614620005a957806364cb907c146200061357806365553ce2146200062b57806366b546e0146200064357620002ef565b80633655ac3c11620002a75780633655ac3c146200042f5780633f4ba83a1462000447578063439282e2146200045f57806358afefcc146200047757806358ed1f0d146200048f5780635b4c354314620004a757620002ef565b806233d9a114620002f45780630879110614620003445780630a39ce0214620003865780630d353cee14620003c657806317d69bc814620003de57806325671dcb14620003f6575b600080fd5b3480156200030157600080fd5b5062000328600480360360408110156200031a57600080fd5b508035906020013562000d1b565b604080516001600160a01b039092168252519081900360200190f35b3480156200035157600080fd5b5062000372600480360360208110156200036a57600080fd5b503562000d64565b604080519115158252519081900360200190f35b3480156200039357600080fd5b50620003b460048036036020811015620003ac57600080fd5b503562000d79565b60408051918252519081900360200190f35b348015620003d357600080fd5b50620003b462000d98565b348015620003eb57600080fd5b506200032862000d9e565b3480156200040357600080fd5b506200042d600480360360208110156200041c57600080fd5b50356001600160a01b031662000dad565b005b3480156200043c57600080fd5b506200032862000e1e565b3480156200045457600080fd5b506200042d62000e2d565b3480156200046c57600080fd5b506200032862000f06565b3480156200048457600080fd5b506200042d62000f15565b3480156200049c57600080fd5b50620003b462000fb0565b348015620004b457600080fd5b50620004d560048036036020811015620004cd57600080fd5b503562000fb7565b604080519687526020870195909552858501939093526001600160a01b03918216606086015216608084015260a0830152519081900360c00190f35b3480156200051e57600080fd5b506200052962000ff9565b6040805160ff9092168252519081900360200190f35b3480156200054c57600080fd5b506200058b600480360360c08110156200056557600080fd5b5080359060208101359060408101359060608101359060808101359060a0013562000ffe565b60408051938452602084019290925282820152519081900360600190f35b348015620005b657600080fd5b50620005c162001290565b60408051602080825283518183015283519192839290830191858101910280838360005b83811015620005ff578181015183820152602001620005e5565b505050509050019250505060405180910390f35b3480156200062057600080fd5b5062000529620012ea565b3480156200063857600080fd5b50620003b4620012fa565b3480156200065057600080fd5b50620003b4600480360360608110156200066957600080fd5b5080359060208101359060400135620012ff565b3480156200068a57600080fd5b5062000328620015b7565b348015620006a257600080fd5b506200042d60048036036020811015620006bb57600080fd5b50356001600160a01b0316620015c6565b348015620006d957600080fd5b506200042d62001637565b348015620006f157600080fd5b50620003286200171b565b3480156200070957600080fd5b506200042d600480360360608110156200072257600080fd5b50803590602081013590604001356200172a565b3480156200074357600080fd5b50620003b4600480360360608110156200075c57600080fd5b5080359060208101359060400135620017eb565b3480156200077d57600080fd5b506200042d600480360360208110156200079657600080fd5b503562001a8f565b348015620007ab57600080fd5b506200042d60048036036020811015620007c457600080fd5b50356001600160a01b031662001ae3565b348015620007e257600080fd5b506200042d60048036036020811015620007fb57600080fd5b810190602081018135600160201b8111156200081657600080fd5b8201836020820111156200082957600080fd5b803590602001918460208302840111600160201b831117156200084b57600080fd5b91908080602002602001604051908101604052809392919081815260200183836020028082843760009201919091525092955062001b54945050505050565b6200042d60048036036040811015620008a257600080fd5b508035906020013562001c6a565b348015620008bd57600080fd5b506200037260048036036020811015620008d657600080fd5b503562001f90565b348015620008eb57600080fd5b5062000328600480360360408110156200090457600080fd5b508035906020013562001fa5565b3480156200091f57600080fd5b506200037262002173565b3480156200093757600080fd5b50620003b4600480360360608110156200095057600080fd5b50803590602081013590604001356001600160a01b031662002183565b3480156200097a57600080fd5b50620003b4620023d2565b3480156200099257600080fd5b506200042d60048036036060811015620009ab57600080fd5b5080359060208101359060400135620023d7565b348015620009cc57600080fd5b50620003b460048036036020811015620009e557600080fd5b5035620024c8565b348015620009fa57600080fd5b50620005c1620024d6565b34801562000a1257600080fd5b50620005296200252e565b34801562000a2a57600080fd5b5062000a63600480360360a081101562000a4357600080fd5b508035906020810135906040810135906060810135906080013562002533565b6040805192835260208301919091528051918290030190f35b34801562000a8957600080fd5b506200042d6004803603602081101562000aa257600080fd5b50356001600160a01b0316620026e3565b34801562000ac057600080fd5b506200042d6004803603606081101562000ad957600080fd5b508035906020810135906040013562002754565b34801562000afa57600080fd5b50620005c1600480360360a081101562000b1357600080fd5b5080359060208101359060408101359060608101359060800135620027fe565b34801562000b4057600080fd5b50620003b462002bb2565b34801562000b5857600080fd5b506200042d6004803603602081101562000b7157600080fd5b810190602081018135600160201b81111562000b8c57600080fd5b82018360208201111562000b9f57600080fd5b803590602001918460208302840111600160201b8311171562000bc157600080fd5b91908080602002602001604051908101604052809392919081815260200183836020028082843760009201919091525092955062002bb8945050505050565b34801562000c0d57600080fd5b50620003b46004803603606081101562000c2657600080fd5b508035906020810135906040013562002cc9565b34801562000c4757600080fd5b50620003b46004803603606081101562000c6057600080fd5b50803590602081013590604001356001600160a01b031662002df1565b34801562000c8a57600080fd5b50620003286004803603604081101562000ca357600080fd5b508035906020013562002edb565b34801562000cbe57600080fd5b506200032862002f24565b34801562000cd657600080fd5b506200032862002f33565b34801562000cee57600080fd5b50620003b46004803603606081101562000d0757600080fd5b508035906020810135906040013562002f42565b604080516020808201859052818301849052825180830384018152606090920183528151918101919091206000908152600b90915220600301546001600160a01b031692915050565b600c6020526000908152604090205460ff1681565b6006818154811062000d8757fe5b600091825260209091200154905081565b60025481565b6008546001600160a01b031681565b6004546001600160a01b0316331462000dfc576040805162461bcd60e51b8152602060048201526019602482015260008051602062004f33833981519152604482015290519081900360640190fd5b600780546001600160a01b0319166001600160a01b0392909216919091179055565b6000546001600160a01b031681565b6004546001600160a01b0316331462000e7c576040805162461bcd60e51b8152602060048201526019602482015260008051602062004f33833981519152604482015290519081900360640190fd5b600054600160a81b900460ff1662000ecf576040805162461bcd60e51b815260206004820152601160248201527011549493d48e881b9bdd081c185d5cd959607a1b604482015290519081900360640190fd5b6000805460ff60a81b1916815560405133917faeb196d352664784d1900b0e7414a8face7d29f4dae8c4b0cf68ed477423bbf491a2565b6001546001600160a01b031681565b6004546001600160a01b0316331462000f64576040805162461bcd60e51b8152602060048201526019602482015260008051602062004f33833981519152604482015290519081900360640190fd5b6000805460ff60a01b1960ff60a81b19909116600160a81b1716600160a01b17815560405133917fe268f71d4f59508eecb1a95c8b222569196176780f8a8f76f6816033d004e52891a2565b6003545b90565b600b602052600090815260409020805460018201546002830154600384015460048501546005909501549394929391926001600160a01b039182169291169086565b600181565b60008060008888438211620010455760405162461bcd60e51b815260040180806020018281038252602381526020018062004f106023913960400191505060405180910390fd5b6000828152600c602052604090205460ff1680156200107257506000818152600d602052604090205460ff165b620010af5760405162461bcd60e51b815260040180806020018281038252602281526020018062004ecc6022913960400191505060405180910390fd5b6000620010bd8c8c62000d1b565b90506001600160a01b0381166200110a576040805162461bcd60e51b8152602060048201526018602482015260008051602062004f53833981519152604482015290519081900360640190fd5b6000816001600160a01b0316637158da7c6040518163ffffffff1660e01b815260040160206040518083038186803b1580156200114657600080fd5b505afa1580156200115b573d6000803e3d6000fd5b505050506040513d60208110156200117257600080fd5b50516009549091506001600160a01b031663e8e3370083838e8e8e8e33620011a34361070863ffffffff6200306a16565b6040518963ffffffff1660e01b815260040180896001600160a01b03166001600160a01b03168152602001886001600160a01b03166001600160a01b03168152602001878152602001868152602001858152602001848152602001836001600160a01b03166001600160a01b0316815260200182815260200198505050505050505050606060405180830381600087803b1580156200124157600080fd5b505af115801562001256573d6000803e3d6000fd5b505050506040513d60608110156200126d57600080fd5b5080516020820151604090920151909f919e509c509a5050505050505050505050565b60606006805480602002602001604051908101604052809291908181526020018280548015620012e057602002820191906000526020600020905b815481526020019060010190808311620012cb575b5050505050905090565b600054600160a01b900460ff1681565b600b81565b6000806200130e858562000d1b565b90506001600160a01b0381166200135b576040805162461bcd60e51b8152602060048201526018602482015260008051602062004f53833981519152604482015290519081900360640190fd5b6000816001600160a01b0316637158da7c6040518163ffffffff1660e01b815260040160206040518083038186803b1580156200139757600080fd5b505afa158015620013ac573d6000803e3d6000fd5b505050506040513d6020811015620013c357600080fd5b50516040805160028082526060808301845293945090916020830190803883390190505090508281600081518110620013f857fe5b60200260200101906001600160a01b031690816001600160a01b03168152505081816001815181106200142757fe5b6001600160a01b039283166020918202929092018101919091526009546040805163d06ca61f60e01b8152600481018a815260248201928352865160448301528651939095169463d06ca61f948b948894929360640191858101910280838360005b83811015620014a357818101518382015260200162001489565b50505050905001935050505060006040518083038186803b158015620014c857600080fd5b505afa158015620014dd573d6000803e3d6000fd5b505050506040513d6000823e601f3d908101601f1916820160405260208110156200150757600080fd5b8101908080516040519392919084600160201b8211156200152757600080fd5b9083019060208201858111156200153d57600080fd5b82518660208202830111600160201b821117156200155a57600080fd5b82525081516020918201928201910280838360005b83811015620015895781810151838201526020016200156f565b50505050905001604052505050600181518110620015a357fe5b602002602001015193505050509392505050565b6007546001600160a01b031681565b6004546001600160a01b0316331462001615576040805162461bcd60e51b8152602060048201526019602482015260008051602062004f33833981519152604482015290519081900360640190fd5b600a80546001600160a01b0319166001600160a01b0392909216919091179055565b6004546001600160a01b0316331462001686576040805162461bcd60e51b8152602060048201526019602482015260008051602062004f33833981519152604482015290519081900360640190fd5b600054600160a81b900460ff1615620016de576040805162461bcd60e51b815260206004820152601560248201527411549493d48e88185b1c9958591e481c185d5cd959605a1b604482015290519081900360640190fd5b6000805460ff60a81b1916600160a81b17815560405133917f5ee71a369c8672edded508e624ffc9257fa1ae6886ef32905c18e60196bca39991a2565b6009546001600160a01b031681565b600062001738848462000d1b565b90506001600160a01b03811662001785576040805162461bcd60e51b8152602060048201526018602482015260008051602062004f53833981519152604482015290519081900360640190fd5b806001600160a01b031663d3f3d3fc836040518263ffffffff1660e01b815260040180828152602001915050600060405180830381600087803b158015620017cc57600080fd5b505af1158015620017e1573d6000803e3d6000fd5b5050505050505050565b600080620017fa858562000d1b565b90506001600160a01b03811662001847576040805162461bcd60e51b8152602060048201526018602482015260008051602062004f53833981519152604482015290519081900360640190fd5b6000816001600160a01b0316637158da7c6040518163ffffffff1660e01b815260040160206040518083038186803b1580156200188357600080fd5b505afa15801562001898573d6000803e3d6000fd5b505050506040513d6020811015620018af57600080fd5b50516040805160028082526060808301845293945090916020830190803883390190505090508281600081518110620018e457fe5b60200260200101906001600160a01b031690816001600160a01b03168152505081816001815181106200191357fe5b6001600160a01b03928316602091820292909201810191909152600954604080516307c0329d60e21b8152600481018a8152602482019283528651604483015286519390951694631f00ca74948b948894929360640191858101910280838360005b838110156200198f57818101518382015260200162001975565b50505050905001935050505060006040518083038186803b158015620019b457600080fd5b505afa158015620019c9573d6000803e3d6000fd5b505050506040513d6000823e601f3d908101601f191682016040526020811015620019f357600080fd5b8101908080516040519392919084600160201b82111562001a1357600080fd5b90830190602082018581111562001a2957600080fd5b82518660208202830111600160201b8211171562001a4657600080fd5b82525081516020918201928201910280838360005b8381101562001a7557818101518382015260200162001a5b565b50505050905001604052505050600081518110620015a357fe5b6004546001600160a01b0316331462001ade576040805162461bcd60e51b8152602060048201526019602482015260008051602062004f33833981519152604482015290519081900360640190fd5b600355565b6004546001600160a01b0316331462001b32576040805162461bcd60e51b8152602060048201526019602482015260008051602062004f33833981519152604482015290519081900360640190fd5b600980546001600160a01b0319166001600160a01b0392909216919091179055565b6004546001600160a01b0316331462001ba3576040805162461bcd60e51b8152602060048201526019602482015260008051602062004f33833981519152604482015290519081900360640190fd5b60055460005b8181101562001bfa576000600c60006005848154811062001bc657fe5b60009182526020808320919091015483528201929092526040019020805460ff191691151591909117905560010162001ba9565b5050805160005b8181101562001c4f576001600c600085848151811062001c1d57fe5b6020908102919091018101518252810191909152604001600020805460ff191691151591909117905560010162001c01565b50815162001c65906005906020850190620030cc565b505050565b818143821162001cac5760405162461bcd60e51b815260040180806020018281038252602381526020018062004f106023913960400191505060405180910390fd5b6000828152600c602052604090205460ff16801562001cd957506000818152600d602052604090205460ff165b62001d165760405162461bcd60e51b815260040180806020018281038252602281526020018062004ecc6022913960400191505060405180910390fd5b6000341162001d575760405162461bcd60e51b815260040180806020018281038252602281526020018062004eee6022913960400191505060405180910390fd5b604080516020808201879052818301869052825180830384018152606090920183528151918101919091206000818152600b909252919020600301546001600160a01b03168062001f1c5760075460085460405160009230926001600160a01b03918216926012929091169082908b908d9062001dd4906200311c565b6001600160a01b03978816604080830191909152968816606082015260ff95861660808201529390961660a0840152921660c082015260e0810191909152610100810192909252610120808352600e908301526d2739bab932a1b0b6362a37b5b2b760911b610140830152610160602083018190526004908301526310d0531360e21b61018083015251908190036101a001906000f08015801562001e7d573d6000803e3d6000fd5b506040805160c08101825289815260208082018a8152600380548486019081526001600160a01b0387811660608701908152600754821660808801908152600b60a0890181815260008f81529190985298909820965187559351600187015590516002860155915190840180546001600160a01b0319908116928416929092179055935160048401805490951691161790925590516005909101559150505b604080516340c10f1960e01b8152336004820152346024820181905291516001600160a01b038416926340c10f19929091604480830192600092919082900301818588803b15801562001f6e57600080fd5b505af115801562001f83573d6000803e3d6000fd5b5050505050505050505050565b600d6020526000908152604090205460ff1681565b60008062001fb4848462000d1b565b90506001600160a01b03811662002001576040805162461bcd60e51b8152602060048201526018602482015260008051602062004f53833981519152604482015290519081900360640190fd5b6000816001600160a01b0316637158da7c6040518163ffffffff1660e01b815260040160206040518083038186803b1580156200203d57600080fd5b505afa15801562002052573d6000803e3d6000fd5b505050506040513d60208110156200206957600080fd5b50516009546040805163c45a015560e01b815290519293506000926001600160a01b039092169163c45a015591600480820192602092909190829003018186803b158015620020b757600080fd5b505afa158015620020cc573d6000803e3d6000fd5b505050506040513d6020811015620020e357600080fd5b50516040805163e6a4390560e01b81526001600160a01b038681166004830152858116602483015291519293509083169163e6a4390591604480820192602092909190829003018186803b1580156200213b57600080fd5b505afa15801562002150573d6000803e3d6000fd5b505050506040513d60208110156200216757600080fd5b50519695505050505050565b600054600160a81b900460ff1681565b60008062002192858562000d1b565b90506001600160a01b038116620021df576040805162461bcd60e51b8152602060048201526018602482015260008051602062004f53833981519152604482015290519081900360640190fd5b6000816001600160a01b0316637158da7c6040518163ffffffff1660e01b815260040160206040518083038186803b1580156200221b57600080fd5b505afa15801562002230573d6000803e3d6000fd5b505050506040513d60208110156200224757600080fd5b50516009546040805163c45a015560e01b815290519293506000926001600160a01b039092169163c45a015591600480820192602092909190829003018186803b1580156200229557600080fd5b505afa158015620022aa573d6000803e3d6000fd5b505050506040513d6020811015620022c157600080fd5b50516040805163e6a4390560e01b81526001600160a01b038681166004830152858116602483015291519293506000929184169163e6a4390591604480820192602092909190829003018186803b1580156200231c57600080fd5b505afa15801562002331573d6000803e3d6000fd5b505050506040513d60208110156200234857600080fd5b5051604080516370a0823160e01b81526001600160a01b0389811660048301529151929350908316916370a0823191602480820192602092909190829003018186803b1580156200239857600080fd5b505afa158015620023ad573d6000803e3d6000fd5b505050506040513d6020811015620023c457600080fd5b505198975050505050505050565b600c81565b6004546001600160a01b0316331462002426576040805162461bcd60e51b8152602060048201526019602482015260008051602062004f33833981519152604482015290519081900360640190fd5b600062002434848462000d1b565b90506001600160a01b03811662002481576040805162461bcd60e51b8152602060048201526018602482015260008051602062004f53833981519152604482015290519081900360640190fd5b806001600160a01b031663b07f0a41836040518263ffffffff1660e01b815260040180828152602001915050600060405180830381600087803b158015620017cc57600080fd5b6005818154811062000d8757fe5b60606005805480602002602001604051908101604052809291908181526020018280548015620012e05760200282019190600052602060002090815481526020019060010190808311620012cb575050505050905090565b600081565b600080600062002544888862000d1b565b90506001600160a01b03811662002591576040805162461bcd60e51b8152602060048201526018602482015260008051602062004f53833981519152604482015290519081900360640190fd5b6000816001600160a01b0316637158da7c6040518163ffffffff1660e01b815260040160206040518083038186803b158015620025cd57600080fd5b505afa158015620025e2573d6000803e3d6000fd5b505050506040513d6020811015620025f957600080fd5b50516009549091506001600160a01b031663baa2abde83838a8a8a33620026294361070863ffffffff6200306a16565b604080516001600160e01b031960e08b901b1681526001600160a01b039889166004820152968816602488015260448701959095526064860193909352608485019190915290931660a483015260c4820192909252815160e480830193928290030181600087803b1580156200269e57600080fd5b505af1158015620026b3573d6000803e3d6000fd5b505050506040513d6040811015620026ca57600080fd5b508051602090910151909a909950975050505050505050565b6004546001600160a01b0316331462002732576040805162461bcd60e51b8152602060048201526019602482015260008051602062004f33833981519152604482015290519081900360640190fd5b600880546001600160a01b0319166001600160a01b0392909216919091179055565b600062002762848462000d1b565b90506001600160a01b038116620027af576040805162461bcd60e51b8152602060048201526018602482015260008051602062004f53833981519152604482015290519081900360640190fd5b604080516301e9a69560e41b81523360048201526024810184905290516001600160a01b03831691631e9a695091604480830192600092919082900301818387803b158015620017cc57600080fd5b60608315806200280e5750836001145b62002856576040805162461bcd60e51b81526020600482015260136024820152724572726f723a20696e76616c6964207479706560681b604482015290519081900360640190fd5b600062002864878762000d1b565b90506001600160a01b038116620028b1576040805162461bcd60e51b8152602060048201526018602482015260008051602062004f53833981519152604482015290519081900360640190fd5b6000816001600160a01b0316637158da7c6040518163ffffffff1660e01b815260040160206040518083038186803b158015620028ed57600080fd5b505afa15801562002902573d6000803e3d6000fd5b505050506040513d60208110156200291957600080fd5b505160408051600280825260608083018452939450909160208301908038833901905050905086620029a95781816000815181106200295457fe5b60200260200101906001600160a01b031690816001600160a01b03168152505082816001815181106200298357fe5b60200260200101906001600160a01b031690816001600160a01b03168152505062002a08565b8281600081518110620029b857fe5b60200260200101906001600160a01b031690816001600160a01b0316815250508181600181518110620029e757fe5b60200260200101906001600160a01b031690816001600160a01b0316815250505b6009546001600160a01b03166338ed17398787843362002a314361070863ffffffff6200306a16565b6040518663ffffffff1660e01b81526004018086815260200185815260200180602001846001600160a01b03166001600160a01b03168152602001838152602001828103825285818151815260200191508051906020019060200280838360005b8381101562002aac57818101518382015260200162002a92565b505050509050019650505050505050600060405180830381600087803b15801562002ad657600080fd5b505af115801562002aeb573d6000803e3d6000fd5b505050506040513d6000823e601f3d908101601f19168201604052602081101562002b1557600080fd5b8101908080516040519392919084600160201b82111562002b3557600080fd5b90830190602082018581111562002b4b57600080fd5b82518660208202830111600160201b8211171562002b6857600080fd5b82525081516020918201928201910280838360005b8381101562002b9757818101518382015260200162002b7d565b50505050905001604052505050935050505095945050505050565b60035481565b6004546001600160a01b0316331462002c07576040805162461bcd60e51b8152602060048201526019602482015260008051602062004f33833981519152604482015290519081900360640190fd5b60065460005b8181101562002c5e576000600d60006006848154811062002c2a57fe5b60009182526020808320919091015483528201929092526040019020805460ff191691151591909117905560010162002c0d565b5050805160005b8181101562002cb3576001600d600085848151811062002c8157fe5b6020908102919091018101518252810191909152604001600020805460ff191691151591909117905560010162002c65565b50815162001c65906006906020850190620030cc565b60008062002cd8858562000d1b565b90506001600160a01b03811662002d25576040805162461bcd60e51b8152602060048201526018602482015260008051602062004f53833981519152604482015290519081900360640190fd5b6000816001600160a01b0316637158da7c6040518163ffffffff1660e01b815260040160206040518083038186803b15801562002d6157600080fd5b505afa15801562002d76573d6000803e3d6000fd5b505050506040513d602081101562002d8d57600080fd5b5051604080516002808252606080830184529394509091602083019080388339019050509050818160008151811062002dc257fe5b60200260200101906001600160a01b031690816001600160a01b03168152505082816001815181106200191357fe5b60008062002e00858562000d1b565b90506001600160a01b03811662002e4d576040805162461bcd60e51b8152602060048201526018602482015260008051602062004f53833981519152604482015290519081900360640190fd5b806001600160a01b03166370a08231846040518263ffffffff1660e01b815260040180826001600160a01b03166001600160a01b0316815260200191505060206040518083038186803b15801562002ea457600080fd5b505afa15801562002eb9573d6000803e3d6000fd5b505050506040513d602081101562002ed057600080fd5b505195945050505050565b604080516020808201859052818301849052825180830384018152606090920183528151918101919091206000908152600b90915220600401546001600160a01b031692915050565b6004546001600160a01b031681565b600a546001600160a01b031681565b60008062002f51858562000d1b565b90506001600160a01b03811662002f9e576040805162461bcd60e51b8152602060048201526018602482015260008051602062004f53833981519152604482015290519081900360640190fd5b6000816001600160a01b0316637158da7c6040518163ffffffff1660e01b815260040160206040518083038186803b15801562002fda57600080fd5b505afa15801562002fef573d6000803e3d6000fd5b505050506040513d60208110156200300657600080fd5b505160408051600280825260608083018452939450909160208301908038833901905050905081816000815181106200303b57fe5b60200260200101906001600160a01b031690816001600160a01b03168152505082816001815181106200142757fe5b600082820183811015620030c5576040805162461bcd60e51b815260206004820152601b60248201527f536166654d6174683a206164646974696f6e206f766572666c6f770000000000604482015290519081900360640190fd5b9392505050565b8280548282559060005260206000209081019282156200310a579160200282015b828111156200310a578251825591602001919060010190620030ed565b50620031189291506200312a565b5090565b611d84806200314883390190565b62000fb491905b808211156200311857600081556001016200313156fe60806040526005805461ffff60b01b1916815560085560126015553480156200002757600080fd5b5060405162001d8438038062001d8483398181016040526101208110156200004e57600080fd5b81019080805160405193929190846401000000008211156200006f57600080fd5b9083019060208201858111156200008557600080fd5b8251640100000000811182820188101715620000a057600080fd5b82525081516020918201929091019080838360005b83811015620000cf578181015183820152602001620000b5565b50505050905090810190601f168015620000fd5780820380516001836020036101000a031916815260200191505b50604052602001805160405193929190846401000000008211156200012157600080fd5b9083019060208201858111156200013757600080fd5b82516401000000008111828201881017156200015257600080fd5b82525081516020918201929091019080838360005b838110156200018157818101518382015260200162000167565b50505050905090810190601f168015620001af5780820380516001836020036101000a031916815260200191505b506040908152602082810151918301516060840151608085015160a086015160c087015160e0909701518b519699509397509195909491939092918a918a91601291620002029160039186019062000291565b5081516200021890600490602085019062000291565b506005805461010060ff1990911660ff9384161761ff001916179055600980546001600160a01b03199081166001600160a01b039c8d1617909155600a805482169a8c169a909a17909955968716600b555050600c805490961693909616929092179093559116600d55600e5560105550620003369050565b828054600181600116156101000203166002900490600052602060002090601f016020900481019282601f10620002d457805160ff191683800117855562000304565b8280016001018555821562000304579182015b8281111562000304578251825591602001919060010190620002e7565b506200031292915062000316565b5090565b6200033391905b808211156200031257600081556001016200031d565b90565b611a3e80620003466000396000f3fe6080604052600436106102305760003560e01c806390e64d131161012e578063b66a5e4c116100ab578063d3f3d3fc1161006f578063d3f3d3fc14610718578063dc38679c14610742578063dd62ed3e14610757578063ddf54ab714610792578063f2f4eb26146107a757610230565b8063b66a5e4c14610691578063c1325661146106a6578063c52987cf146106bb578063c5492b6d146106d0578063d2801af81461070357610230565b8063a8dd9fcb116100f2578063a8dd9fcb146105ef578063a9059cbb14610604578063a99614141461063d578063b07f0a4114610652578063b35438891461067c57610230565b806390e64d131461056257806395d89b41146105775780639a32c2071461058c5780639d2f83f0146105a1578063a457c2d7146105b657610230565b806339509351116101bc57806364cb907c1161018057806364cb907c146104db57806365553ce2146104f05780636b4d18551461050557806370a082311461051a5780637158da7c1461054d57610230565b8063395093511461043757806340c10f1914610470578063439282e21461049c57806356e2e0f1146104b157806361b786c8146104c657610230565b806318160ddd1161020357806318160ddd146103645780631e9a69501461037957806323b872dd146103b4578063313ce567146103f75780633655ac3c1461042257610230565b806306fdde0314610235578063095ea7b3146102bf5780630d353cee1461030c57806317d69bc814610333575b600080fd5b34801561024157600080fd5b5061024a6107bc565b6040805160208082528351818301528351919283929083019185019080838360005b8381101561028457818101518382015260200161026c565b50505050905090810190601f1680156102b15780820380516001836020036101000a031916815260200191505b509250505060405180910390f35b3480156102cb57600080fd5b506102f8600480360360408110156102e257600080fd5b506001600160a01b038135169060200135610853565b604080519115158252519081900360200190f35b34801561031857600080fd5b50610321610871565b60408051918252519081900360200190f35b34801561033f57600080fd5b50610348610877565b604080516001600160a01b039092168252519081900360200190f35b34801561037057600080fd5b50610321610886565b34801561038557600080fd5b506103b26004803603604081101561039c57600080fd5b506001600160a01b03813516906020013561088c565b005b3480156103c057600080fd5b506102f8600480360360608110156103d757600080fd5b506001600160a01b03813581169160208101359091169060400135610a8d565b34801561040357600080fd5b5061040c610b1a565b6040805160ff9092168252519081900360200190f35b34801561042e57600080fd5b50610348610b23565b34801561044357600080fd5b506102f86004803603604081101561045a57600080fd5b506001600160a01b038135169060200135610b38565b6103b26004803603604081101561048657600080fd5b506001600160a01b038135169060200135610b8c565b3480156104a857600080fd5b50610348610db5565b3480156104bd57600080fd5b50610321610dc4565b3480156104d257600080fd5b5061040c610dca565b3480156104e757600080fd5b5061040c610dcf565b3480156104fc57600080fd5b50610321610ddf565b34801561051157600080fd5b50610321610de4565b34801561052657600080fd5b506103216004803603602081101561053d57600080fd5b50356001600160a01b0316610dea565b34801561055957600080fd5b50610348610e05565b34801561056e57600080fd5b50610321610e14565b34801561058357600080fd5b5061024a610e23565b34801561059857600080fd5b50610321610e84565b3480156105ad57600080fd5b506102f8610e8a565b3480156105c257600080fd5b506102f8600480360360408110156105d957600080fd5b506001600160a01b038135169060200135610e9a565b3480156105fb57600080fd5b50610321610f08565b34801561061057600080fd5b506102f86004803603604081101561062757600080fd5b506001600160a01b038135169060200135610f0d565b34801561064957600080fd5b50610321610f21565b34801561065e57600080fd5b506103b26004803603602081101561067557600080fd5b5035610f27565b34801561068857600080fd5b506103216110a1565b34801561069d57600080fd5b5061040c6110a7565b3480156106b257600080fd5b506103216110ac565b3480156106c757600080fd5b506103216110b2565b3480156106dc57600080fd5b50610321600480360360208110156106f357600080fd5b50356001600160a01b03166110b8565b34801561070f57600080fd5b506103216110ca565b34801561072457600080fd5b506103b26004803603602081101561073b57600080fd5b50356110d0565b34801561074e57600080fd5b50610321611125565b34801561076357600080fd5b506103216004803603604081101561077a57600080fd5b506001600160a01b038135811691602001351661112b565b34801561079e57600080fd5b50610321611156565b3480156107b357600080fd5b5061034861115c565b60038054604080516020601f60026000196101006001881615020190951694909404938401819004810282018101909252828152606093909290918301828280156108485780601f1061081d57610100808354040283529160200191610848565b820191906000526020600020905b81548152906001019060200180831161082b57829003601f168201915b505050505090505b90565b600061086761086061116b565b848461116f565b5060015b92915050565b60075481565b600c546001600160a01b031681565b60025490565b6009546001600160a01b031633146108dc576040805162461bcd60e51b815260206004820152600e60248201526d139bdd08185d5d1a1bdc9a5e995960921b604482015290519081900360640190fd5b6108e461125b565b6002146109225760405162461bcd60e51b81526004018080602001828103825260228152602001806118966022913960400191505060405180910390fd5b60006109396008548361128690919063ffffffff16565b6001600160a01b03841660009081526016602052604090205490915080156109ae57610992610985601454610979846013546112cf90919063ffffffff16565b9063ffffffff61128616565b839063ffffffff61132816565b6001600160a01b03851660009081526016602052604081205591505b600c546001600160a01b03166109fa576040516001600160a01b0385169083156108fc029084906000818181858888f193505050501580156109f4573d6000803e3d6000fd5b50610a7d565b600c546040805163a9059cbb60e01b81526001600160a01b038781166004830152602482018690529151919092169163a9059cbb9160448083019260209291908290030181600087803b158015610a5057600080fd5b505af1158015610a64573d6000803e3d6000fd5b505050506040513d6020811015610a7a57600080fd5b50505b610a878484611382565b50505050565b6000610a9a84848461147e565b610b1084610aa661116b565b610b0b856040518060600160405280602881526020016118d9602891396001600160a01b038a16600090815260016020526040812090610ae461116b565b6001600160a01b03168152602081019190915260400160002054919063ffffffff6115da16565b61116f565b5060019392505050565b60055460ff1690565b6005546201000090046001600160a01b031681565b6000610867610b4561116b565b84610b0b8560016000610b5661116b565b6001600160a01b03908116825260208083019390935260409182016000908120918c16815292529020549063ffffffff61132816565b6009546001600160a01b03163314610bdc576040805162461bcd60e51b815260206004820152600e60248201526d139bdd08185d5d1a1bdc9a5e995960921b604482015290519081900360640190fd5b610be461125b565b15610c205760405162461bcd60e51b815260040180806020018281038252602181526020018061196b6021913960400191505060405180910390fd5b600c546001600160a01b0316610c7357803414610c6e5760405162461bcd60e51b81526004018080602001828103825260258152602001806119c06025913960400191505060405180910390fd5b610d34565b600c54604080516323b872dd60e01b81523360048201523060248201526044810184905290516001600160a01b03909216916323b872dd916064808201926020929091908290030181600087803b158015610ccd57600080fd5b505af1158015610ce1573d6000803e3d6000fd5b505050506040513d6020811015610cf757600080fd5b5051610d345760405162461bcd60e51b815260040180806020018281038252603481526020018061198c6034913960400191505060405180910390fd5b6000610d4b600854836112cf90919063ffffffff16565b6001600160a01b038416600090815260166020526040902054909150610d77908263ffffffff61132816565b6001600160a01b038416600090815260166020526040902055601454610da3908263ffffffff61132816565b601455610db08382611671565b505050565b6006546001600160a01b031681565b60105481565b600181565b600554600160b01b900460ff1681565b600b81565b60135481565b6001600160a01b031660009081526020819052604090205490565b600a546001600160a01b031681565b6000610e1e61125b565b905090565b60048054604080516020601f60026000196101006001881615020190951694909404938401819004810282018101909252828152606093909290918301828280156108485780601f1061081d57610100808354040283529160200191610848565b600b5481565b600554600160b81b900460ff1681565b6000610867610ea761116b565b84610b0b856040518060600160405280602581526020016119e56025913960016000610ed161116b565b6001600160a01b03908116825260208083019390935260409182016000908120918d1681529252902054919063ffffffff6115da16565b600c81565b6000610867610f1a61116b565b848461147e565b60125481565b6009546001600160a01b03163314610f77576040805162461bcd60e51b815260206004820152600e60248201526d139bdd08185d5d1a1bdc9a5e995960921b604482015290519081900360640190fd5b610f7f61125b565b600114610fd3576040805162461bcd60e51b815260206004820152601d60248201527f4572726f723a206e6f7420696e20657865726369736520706572696f64000000604482015290519081900360640190fd5b600f819055600e548111610ff05760006011819055601255611087565b6000611009600854600f5461128690919063ffffffff16565b90506000611024600e54600f5461176190919063ffffffff16565b905060008183106110355781611037565b825b905061105781610979601554600a0a600f546112cf90919063ffffffff16565b601181905550611080601554600a0a610979601154611074610886565b9063ffffffff6112cf16565b6012555050505b60125461109b90479063ffffffff61176116565b60135550565b60145481565b600081565b600d5481565b600f5481565b60166020526000908152604090205481565b60085481565b6009546001600160a01b03163314611120576040805162461bcd60e51b815260206004820152600e60248201526d139bdd08185d5d1a1bdc9a5e995960921b604482015290519081900360640190fd5b601055565b600e5481565b6001600160a01b03918216600090815260016020908152604080832093909416825291909152205490565b60115481565b6009546001600160a01b031681565b3390565b6001600160a01b0383166111b45760405162461bcd60e51b81526004018080602001828103825260248152602001806119476024913960400191505060405180910390fd5b6001600160a01b0382166111f95760405162461bcd60e51b815260040180806020018281038252602281526020018061184e6022913960400191505060405180910390fd5b6001600160a01b03808416600081815260016020908152604080832094871680845294825291829020859055815185815291517f8c5be1e5ebec7d5bd14f71427d1e84f3dd0314c0f7b2291e5b200ac8c7c3b9259281900390910190a3505050565b600060105443101561126f57506000610850565b600f5461127e57506001610850565b506002610850565b60006112c883836040518060400160405280601a81526020017f536166654d6174683a206469766973696f6e206279207a65726f0000000000008152506117a3565b9392505050565b6000826112de5750600061086b565b828202828482816112eb57fe5b04146112c85760405162461bcd60e51b81526004018080602001828103825260218152602001806118b86021913960400191505060405180910390fd5b6000828201838110156112c8576040805162461bcd60e51b815260206004820152601b60248201527f536166654d6174683a206164646974696f6e206f766572666c6f770000000000604482015290519081900360640190fd5b6001600160a01b0382166113c75760405162461bcd60e51b81526004018080602001828103825260218152602001806119016021913960400191505060405180910390fd5b61140a8160405180606001604052806022815260200161182c602291396001600160a01b038516600090815260208190526040902054919063ffffffff6115da16565b6001600160a01b038316600090815260208190526040902055600254611436908263ffffffff61176116565b6002556040805182815290516000916001600160a01b038516917fddf252ad1be2c89b69c2b068fc378daa952ba7f163c4a11628f55a4df523b3ef9181900360200190a35050565b6001600160a01b0383166114c35760405162461bcd60e51b81526004018080602001828103825260258152602001806119226025913960400191505060405180910390fd5b6001600160a01b0382166115085760405162461bcd60e51b81526004018080602001828103825260238152602001806118096023913960400191505060405180910390fd5b61154b81604051806060016040528060268152602001611870602691396001600160a01b038616600090815260208190526040902054919063ffffffff6115da16565b6001600160a01b038085166000908152602081905260408082209390935590841681522054611580908263ffffffff61132816565b6001600160a01b038084166000818152602081815260409182902094909455805185815290519193928716927fddf252ad1be2c89b69c2b068fc378daa952ba7f163c4a11628f55a4df523b3ef92918290030190a3505050565b600081848411156116695760405162461bcd60e51b81526004018080602001828103825283818151815260200191508051906020019080838360005b8381101561162e578181015183820152602001611616565b50505050905090810190601f16801561165b5780820380516001836020036101000a031916815260200191505b509250505060405180910390fd5b505050900390565b6001600160a01b0382166116cc576040805162461bcd60e51b815260206004820152601f60248201527f45524332303a206d696e7420746f20746865207a65726f206164647265737300604482015290519081900360640190fd5b6002546116df908263ffffffff61132816565b6002556001600160a01b03821660009081526020819052604090205461170b908263ffffffff61132816565b6001600160a01b0383166000818152602081815260408083209490945583518581529351929391927fddf252ad1be2c89b69c2b068fc378daa952ba7f163c4a11628f55a4df523b3ef9281900390910190a35050565b60006112c883836040518060400160405280601e81526020017f536166654d6174683a207375627472616374696f6e206f766572666c6f7700008152506115da565b600081836117f25760405162461bcd60e51b815260206004820181815283516024840152835190928392604490910191908501908083836000831561162e578181015183820152602001611616565b5060008385816117fe57fe5b049594505050505056fe45524332303a207472616e7366657220746f20746865207a65726f206164647265737345524332303a206275726e20616d6f756e7420657863656564732062616c616e636545524332303a20617070726f766520746f20746865207a65726f206164647265737345524332303a207472616e7366657220616d6f756e7420657863656564732062616c616e63654572726f723a20657865726369736520706572696f64206973206e6f74206f766572536166654d6174683a206d756c7469706c69636174696f6e206f766572666c6f7745524332303a207472616e7366657220616d6f756e74206578636565647320616c6c6f77616e636545524332303a206275726e2066726f6d20746865207a65726f206164647265737345524332303a207472616e736665722066726f6d20746865207a65726f206164647265737345524332303a20617070726f76652066726f6d20746865207a65726f20616464726573734572726f723a20657865726369736520706572696f6420686173207061737365644572726f723a207472616e736665722066726f6d206572726f722066726f6d20636f6e74726f6c6c657220746f206f7074696f6e4572726f723a20696e76616c696420616d6f756e74206f6620737472696b6520617373657445524332303a2064656372656173656420616c6c6f77616e63652062656c6f77207a65726fa265627a7a72315820c237fb43363e53d40069582e5c06e876e53f246ba144337d81dff1d2502a4f5a64736f6c634300051100324572726f723a20696e76616c696420646561646c696e65206f7220746172676574214572726f723a20737472696b6520617373657420616d6f756e74206973207a65726f4552524f523a20646561646c696e65206265666f726520626c6f636b2e6e756d6265724e6f7420417574686f72697a65642c204f6e6c7920436f7265000000000000004572726f723a206f7074696f6e206e6f742065786973742e0000000000000000a265627a7a723158206cd897130d5e65421c92639587336a19720eb1b253632eb1c33d3c99a13fb96a64736f6c63430005110032",
  "source": "pragma solidity 0.5.17;\n\nimport \"@openzeppelin/contracts/token/ERC20/IERC20.sol\";\nimport \"@openzeppelin/contracts/math/SafeMath.sol\";\n\nimport \"./interfaces/IUniswapV2Router02.sol\";\nimport \"./interfaces/IUniswapV2Factory.sol\";\n\nimport \"./NsureCallToken.sol\";\n\nimport \"./Storage.sol\";\n\ncontract OptionController is Storage {\n    using SafeMath for uint256;\n    address public core;\n\n    struct Option {\n        uint256 deadline; //expiration block number\n        uint256 target; //targe price\n        uint256 optionAmountPerStrike; //1\n        address optionAddress;\n        address underlyingAssetAddress;\n        uint256 orderDirection; //should be ORDER_OPTION_CALL or ORDER_OPTION_PUT\n    }\n\n    uint256[] public deadlines; // block number\n    uint256[] public targets; // \n\n    address public underlyingAsset;\n    address public strikeAsset;\n\n    address public uniswapOption;\n    address public uniswapSpots;\n    \n    mapping(bytes32 => Option) public options;  // \n    mapping(uint => bool) public inDeadline;    // deadline \n    mapping(uint => bool) public inTargets;     // target \n\n    event Pause(address indexed user);\n    event Unpause(address indexed user);\n    event Emergency(address indexed user);\n\n    modifier onlyCore() {\n        require(msg.sender == core, \"Not Authorized, Only Core\");\n        _;\n    }\n\n    constructor(address _uniswapOption, address _strikeAsset, address _underlyingAsset) public {\n        core = msg.sender;\n        uniswapOption = _uniswapOption;\n        strikeAsset = _strikeAsset;\n        underlyingAsset = _underlyingAsset;\n    }\n\n    /*******************   *****************/\n    function setOptionAmountPerStrike(uint _optionAmountPerStrike) public onlyCore {\n        optionAmountPerStrike = _optionAmountPerStrike;\n    }\n\n    function setUniswapOption(address _uniswapOption) public onlyCore {\n        uniswapOption = _uniswapOption;\n    }\n\n    function setUniswapSpots(address _uniswapSpots) public onlyCore {\n        uniswapSpots = _uniswapSpots;\n    }\n\n    function setStrikeAsset(address _strikeAsset) public onlyCore {\n        strikeAsset = _strikeAsset;\n    }\n\n    function setUnderlyingAsset(address _underlyingAsset) public onlyCore {\n        underlyingAsset = _underlyingAsset;\n    }\n\n    function setDeadline(uint[] memory _deadlines) public onlyCore {\n        uint length = deadlines.length;\n        for (uint i = 0; i< length; i++) {\n            inDeadline[deadlines[i]] = false;\n        }\n        \n        length = _deadlines.length;\n        for (uint i = 0; i< length; i++) {\n            inDeadline[_deadlines[i]] = true;\n        }\n\n        deadlines = _deadlines;\n    }\n\n    function setTarget(uint[] memory _target) public onlyCore {\n        uint length = targets.length;\n        for (uint i = 0; i< length; i++) {\n            inTargets[targets[i]] = false;\n        }\n        \n        length = _target.length;\n        for (uint i = 0; i< length; i++) {\n            inTargets[_target[i]] = true;\n        }\n\n        targets = _target;\n    }\n\n    function getDeadlines() public view returns (uint256[] memory) {\n        return deadlines;\n    }\n\n    function getTargets() public view returns (uint256[] memory) {\n        return targets;\n    }\n\n    function getOptionAmountPerStrike() public view returns (uint256) {\n        return optionAmountPerStrike;\n    }\n\n    // test\n    function setExpirationBlockNumber(uint256 _deadline, uint256 _target, uint256 _expirationBlockNumber) public {\n        address optionAddress = getOptionAddress(_deadline, _target);\n        require(optionAddress != address(0), \"Error: option not exist.\");\n        NsureCallToken(optionAddress).setExpirationBlockNumber(_expirationBlockNumber);\n    }\n\n    /*******************   *****************/\n    //deadline  target\n    modifier validParamers(uint256 _deadline, uint256 _target) {\n        require(\n            _deadline > block.number,\n            \"ERROR: deadline before block.number\"\n        );\n        require(\n            inDeadline[_deadline] && inTargets[_target], \n            \"Error: invalid deadline or target!\"\n        );\n        _;\n    }\n\n    // (deadlinenow)\n    // TODO:  ORDER_OPTION_CALL  ORDER_OPTION_PUT\n    function createOption(uint256 _deadline, uint256 _target)\n        public\n        payable\n        validParamers(_deadline, _target)\n    {\n        require(msg.value > 0, \"Error: strike asset amount is zero\");\n\n        bytes32 salt = keccak256(abi.encodePacked(_deadline, _target));\n        address optionAddress = options[salt].optionAddress;\n        if (optionAddress == address(0)) {\n            //TODO: uint256 to string\n            NsureCallToken callToken = new NsureCallToken(\n                \"NsureCallToken\",\n                \"CALL\",\n                address(this),\n                underlyingAsset,\n                18,\n                strikeAsset,\n                18,\n                _target,\n                _deadline\n            );\n\n            optionAddress = address(callToken);\n\n            options[salt] = Option(\n                _deadline,\n                _target,\n                optionAmountPerStrike,\n                optionAddress,\n                underlyingAsset,\n                ORDER_OPTION_CALL\n            );\n        }\n\n        NsureCallToken(optionAddress).mint.value(msg.value)(\n            msg.sender,\n            msg.value\n        );\n    }\n\n    // \n    function redeemOption(\n        uint256 _deadline,\n        uint256 _target,\n        uint256 _optionAmount\n    ) public {\n\n        address optionAddress = getOptionAddress(_deadline, _target);\n        require(optionAddress != address(0), \"Error: option not exist.\");\n        \n        NsureCallToken(optionAddress).redeem(msg.sender, _optionAmount);\n    }\n\n    // \n    function exercise(\n        uint256 _deadline,\n        uint256 _target,\n        uint256 _price\n    ) public onlyCore {\n        address optionAddress = getOptionAddress(_deadline, _target);\n        require(optionAddress != address(0), \"Error: option not exist.\");\n               \n        NsureCallToken(optionAddress).exercise(_price);\n    }\n\n    /***********************  **************************/\n\n    // \n    function getOptionAddress(uint256 _deadline, uint256 _target)\n        public\n        view\n        returns (address)\n    {\n        bytes32 salt = keccak256(abi.encodePacked(_deadline, _target));\n        return options[salt].optionAddress;\n    }\n\n    // underlyingAsset\n    function getOptionUnderlyingAsset(uint256 _deadline, uint256 _target) \n        public\n        view\n        returns (address) \n    {\n        bytes32 salt = keccak256(abi.encodePacked(_deadline, _target));\n        return options[salt].underlyingAssetAddress;\n    }\n\n    // \n    function getOptionBalance(uint256 _deadline, uint256 _target, address _user)\n        public\n        view\n        returns (uint) \n    {\n        address optionAddress = getOptionAddress(_deadline, _target);\n        require(optionAddress != address(0), \"Error: option not exist.\");\n\n        return IERC20(optionAddress).balanceOf(_user);\n\n    }\n\n    // LP\n    function getOptionLPAddress(uint256 _deadline, uint256 _target)\n        public\n        view\n        returns (address)\n    {\n        address optionAddress = getOptionAddress(_deadline, _target);\n        require(optionAddress != address(0), \"Error: option not exist.\");\n        address underlyingAssetAddress = NsureCallToken(optionAddress).underlyingAsset();\n\n        address factory = IUniswapV2Router02(uniswapOption).factory();\n        return IUniswapV2Factory(factory).getPair(optionAddress, underlyingAssetAddress);\n    }\n\n    // LP\n    function getOptionLPBalance(uint256 _deadline, uint256 _target, address _user) \n        public\n        view\n        returns (uint) \n    {\n        address optionAddress = getOptionAddress(_deadline, _target);\n        require(optionAddress != address(0), \"Error: option not exist.\");\n        address underlyingAssetAddress = NsureCallToken(optionAddress).underlyingAsset();\n\n        address factory = IUniswapV2Router02(uniswapOption).factory();\n        address lpAddress = IUniswapV2Factory(factory).getPair(optionAddress, underlyingAssetAddress);\n\n        return IERC20(lpAddress).balanceOf(_user);\n    }\n\n    /*********************** uniswapOption  **************************/\n\n    function addLiquidity(\n        uint _deadline,\n        uint _target,\n        uint _optionDesired,\n        uint _underlyingAssetDesired,\n        uint _optionMin,\n        uint _underlyingAssetMin\n    ) public validParamers(_deadline, _target) returns (uint amountA, uint amountB, uint liquidity) {\n        \n        address optionAddress = getOptionAddress(_deadline, _target);\n        require(optionAddress != address(0), \"Error: option not exist.\");\n        address underlyingAssetAddress = NsureCallToken(optionAddress).underlyingAsset();\n\n        return IUniswapV2Router02(uniswapOption).addLiquidity(optionAddress, underlyingAssetAddress, _optionDesired, _underlyingAssetDesired, _optionMin, _underlyingAssetMin, msg.sender, block.number.add(1800));\n    }\n\n    function revomeLiquidity(\n        uint _deadline,\n        uint _target,\n        uint _liquidity,\n        uint _optionMin,\n        uint _underlyingAssetMin\n    ) public returns (uint amountA, uint amountB) {\n        \n        address optionAddress = getOptionAddress(_deadline, _target);\n        require(optionAddress != address(0), \"Error: option not exist.\");\n\n        address underlyingAssetAddress = NsureCallToken(optionAddress).underlyingAsset();\n\n        return IUniswapV2Router02(uniswapOption).removeLiquidity(optionAddress, underlyingAssetAddress, _liquidity, _optionMin, _underlyingAssetMin, msg.sender, block.number.add(1800));\n    }\n\n    // type == 0 is buy option\n    // type == 1 is sell option\n    function swap(\n        uint _deadline,\n        uint _target,\n        uint _type,\n        uint _amountIn,\n        uint _amountOutMin\n    ) public returns (uint[] memory amounts) {\n        \n        require(_type == 0 || _type == 1, \"Error: invalid type\");\n        \n        address optionAddress = getOptionAddress(_deadline, _target);\n        require(optionAddress != address(0), \"Error: option not exist.\");\n        address underlyingAssetAddress = NsureCallToken(optionAddress).underlyingAsset();\n        \n        address[] memory path = new address[](2);\n        if (_type == 0) {\n            path[0] = underlyingAssetAddress;\n            path[1] = optionAddress;\n        } else {\n            path[0] = optionAddress;\n            path[1] = underlyingAssetAddress;\n        }\n         \n        return IUniswapV2Router02(uniswapOption).swapExactTokensForTokens(_amountIn, _amountOutMin, path, msg.sender, block.number.add(1800));\n    }\n\n    // underlyingAssetoption\n    function getOptionIn(\n        uint _deadline,\n        uint _target,\n        uint _amountOut\n    ) public view returns (uint d) {\n\n        address optionAddress = getOptionAddress(_deadline, _target);\n        require(optionAddress != address(0), \"Error: option not exist.\");\n        address underlyingAssetAddress = NsureCallToken(optionAddress).underlyingAsset();\n\n        address[] memory path = new address[](2);\n        path[0] = optionAddress;\n        path[1] = underlyingAssetAddress;\n        \n        return IUniswapV2Router02(uniswapOption).getAmountsIn(_amountOut, path)[0];\n    }\n\n    // underlyingAssetoption\n    function getOptionOut(\n        uint _deadline,\n        uint _target,\n        uint _amountIn\n    ) public view returns (uint d) {\n\n        address optionAddress = getOptionAddress(_deadline, _target);\n        require(optionAddress != address(0), \"Error: option not exist.\");\n        address underlyingAssetAddress = NsureCallToken(optionAddress).underlyingAsset();\n\n        address[] memory path = new address[](2);\n        path[0] = underlyingAssetAddress;\n        path[1] = optionAddress;\n        \n        return IUniswapV2Router02(uniswapOption).getAmountsOut(_amountIn, path)[1];\n    }\n\n    // optionunderlyingAsset\n    function getUnderlyingIn(\n        uint _deadline,\n        uint _target,\n        uint _amountOut\n    ) public view returns (uint d) {\n\n        address optionAddress = getOptionAddress(_deadline, _target);\n        require(optionAddress != address(0), \"Error: option not exist.\");\n        address underlyingAssetAddress = NsureCallToken(optionAddress).underlyingAsset();\n\n        address[] memory path = new address[](2);\n        path[0] = underlyingAssetAddress;\n        path[1] = optionAddress;\n        \n        return IUniswapV2Router02(uniswapOption).getAmountsIn(_amountOut, path)[0];\n    }\n\n    // optionunderlyingAsset\n    function getUnderlyingOut(\n        uint _deadline,\n        uint _target,\n        uint _amountIn\n    ) public view returns (uint d) {\n\n        address optionAddress = getOptionAddress(_deadline, _target);\n        require(optionAddress != address(0), \"Error: option not exist.\");\n        address underlyingAssetAddress = NsureCallToken(optionAddress).underlyingAsset();\n\n        address[] memory path = new address[](2);\n        path[0] = optionAddress;\n        path[1] = underlyingAssetAddress;\n        \n        return IUniswapV2Router02(uniswapOption).getAmountsOut(_amountIn, path)[1];\n    }\n    \n    function pause() external onlyCore {\n        require(!systemPaused, \"ERROR: already paused\");\n        systemPaused = true;\n        emit Pause(msg.sender);\n    }\n\n    function unpause() external onlyCore {\n        require(systemPaused, \"ERROR: not paused\");\n        systemPaused = false;\n        emit Unpause(msg.sender);\n    }\n\n    function setEmergency() external onlyCore {\n        systemPaused = true;\n        systemStatus = STATUS_EMERGENCY;\n        emit Emergency(msg.sender);\n    }\n\n    \n\n}\n",
  "sourcePath": "/Users/oker/code/xnsure/xnsure-protocol/contracts/OptionController.sol",
  "compiler": {
    "name": "solc",
    "version": "0.5.17+commit.d19bba13.Emscripten.clang"
  },
  "schemaVersion": "3.3.1",
  "updatedAt": "2020-11-14T16:34:24.103Z",
  "networkType": "ethereum",
  "devdoc": {
    "methods": {}
  },
  "userdoc": {
    "methods": {
      "addLiquidity(uint256,uint256,uint256,uint256,uint256,uint256)": {
        "notice": "********************* uniswapOption  *************************"
      },
      "getOptionAddress(uint256,uint256)": {
        "notice": "*********************  *************************"
      },
      "setOptionAmountPerStrike(uint256)": {
        "notice": "*****************   ****************"
      }
    }
  }
}