{
    "contractName": "NsurePutToken",
    "abi": [
        {
            "inputs": [
                {
                    "internalType": "string",
                    "name": "_name",
                    "type": "string"
                },
                {
                    "internalType": "string",
                    "name": "_symbol",
                    "type": "string"
                },
                {
                    "internalType": "contract IERC20",
                    "name": "_underlyingAsset",
                    "type": "address"
                },
                {
                    "internalType": "uint8",
                    "name": "_underlyingAssetDecimal",
                    "type": "uint8"
                },
                {
                    "internalType": "contract IERC20",
                    "name": "_strikeAsset",
                    "type": "address"
                },
                {
                    "internalType": "uint8",
                    "name": "_strikeAssetDecimal",
                    "type": "uint8"
                },
                {
                    "internalType": "uint256",
                    "name": "_strikePrice",
                    "type": "uint256"
                },
                {
                    "internalType": "uint256",
                    "name": "_expirationBlockNumber",
                    "type": "uint256"
                }
            ],
            "payable": false,
            "stateMutability": "nonpayable",
            "type": "constructor"
        },
        {
            "anonymous": false,
            "inputs": [
                {
                    "indexed": true,
                    "internalType": "address",
                    "name": "owner",
                    "type": "address"
                },
                {
                    "indexed": true,
                    "internalType": "address",
                    "name": "spender",
                    "type": "address"
                },
                {
                    "indexed": false,
                    "internalType": "uint256",
                    "name": "value",
                    "type": "uint256"
                }
            ],
            "name": "Approval",
            "type": "event"
        },
        {
            "anonymous": false,
            "inputs": [
                {
                    "indexed": true,
                    "internalType": "address",
                    "name": "from",
                    "type": "address"
                },
                {
                    "indexed": true,
                    "internalType": "address",
                    "name": "to",
                    "type": "address"
                },
                {
                    "indexed": false,
                    "internalType": "uint256",
                    "name": "value",
                    "type": "uint256"
                }
            ],
            "name": "Transfer",
            "type": "event"
        },
        {
            "constant": true,
            "inputs": [],
            "name": "ORDER_OPTION_CALL",
            "outputs": [
                {
                    "internalType": "uint8",
                    "name": "",
                    "type": "uint8"
                }
            ],
            "payable": false,
            "stateMutability": "view",
            "type": "function"
        },
        {
            "constant": true,
            "inputs": [],
            "name": "ORDER_OPTION_PUT",
            "outputs": [
                {
                    "internalType": "uint8",
                    "name": "",
                    "type": "uint8"
                }
            ],
            "payable": false,
            "stateMutability": "view",
            "type": "function"
        },
        {
            "constant": true,
            "inputs": [],
            "name": "STATUS_EMERGENCY",
            "outputs": [
                {
                    "internalType": "uint8",
                    "name": "",
                    "type": "uint8"
                }
            ],
            "payable": false,
            "stateMutability": "view",
            "type": "function"
        },
        {
            "constant": true,
            "inputs": [],
            "name": "STATUS_NORMAL",
            "outputs": [
                {
                    "internalType": "uint8",
                    "name": "",
                    "type": "uint8"
                }
            ],
            "payable": false,
            "stateMutability": "view",
            "type": "function"
        },
        {
            "constant": true,
            "inputs": [
                {
                    "internalType": "address",
                    "name": "owner",
                    "type": "address"
                },
                {
                    "internalType": "address",
                    "name": "spender",
                    "type": "address"
                }
            ],
            "name": "allowance",
            "outputs": [
                {
                    "internalType": "uint256",
                    "name": "",
                    "type": "uint256"
                }
            ],
            "payable": false,
            "stateMutability": "view",
            "type": "function"
        },
        {
            "constant": false,
            "inputs": [
                {
                    "internalType": "address",
                    "name": "spender",
                    "type": "address"
                },
                {
                    "internalType": "uint256",
                    "name": "amount",
                    "type": "uint256"
                }
            ],
            "name": "approve",
            "outputs": [
                {
                    "internalType": "bool",
                    "name": "",
                    "type": "bool"
                }
            ],
            "payable": false,
            "stateMutability": "nonpayable",
            "type": "function"
        },
        {
            "constant": true,
            "inputs": [
                {
                    "internalType": "address",
                    "name": "account",
                    "type": "address"
                }
            ],
            "name": "balanceOf",
            "outputs": [
                {
                    "internalType": "uint256",
                    "name": "",
                    "type": "uint256"
                }
            ],
            "payable": false,
            "stateMutability": "view",
            "type": "function"
        },
        {
            "constant": true,
            "inputs": [],
            "name": "decimals",
            "outputs": [
                {
                    "internalType": "uint8",
                    "name": "",
                    "type": "uint8"
                }
            ],
            "payable": false,
            "stateMutability": "view",
            "type": "function"
        },
        {
            "constant": false,
            "inputs": [
                {
                    "internalType": "address",
                    "name": "spender",
                    "type": "address"
                },
                {
                    "internalType": "uint256",
                    "name": "subtractedValue",
                    "type": "uint256"
                }
            ],
            "name": "decreaseAllowance",
            "outputs": [
                {
                    "internalType": "bool",
                    "name": "",
                    "type": "bool"
                }
            ],
            "payable": false,
            "stateMutability": "nonpayable",
            "type": "function"
        },
        {
            "constant": true,
            "inputs": [],
            "name": "expirationBlockNumber",
            "outputs": [
                {
                    "internalType": "uint256",
                    "name": "",
                    "type": "uint256"
                }
            ],
            "payable": false,
            "stateMutability": "view",
            "type": "function"
        },
        {
            "constant": false,
            "inputs": [
                {
                    "internalType": "address",
                    "name": "spender",
                    "type": "address"
                },
                {
                    "internalType": "uint256",
                    "name": "addedValue",
                    "type": "uint256"
                }
            ],
            "name": "increaseAllowance",
            "outputs": [
                {
                    "internalType": "bool",
                    "name": "",
                    "type": "bool"
                }
            ],
            "payable": false,
            "stateMutability": "nonpayable",
            "type": "function"
        },
        {
            "constant": true,
            "inputs": [],
            "name": "isPublic",
            "outputs": [
                {
                    "internalType": "bool",
                    "name": "",
                    "type": "bool"
                }
            ],
            "payable": false,
            "stateMutability": "view",
            "type": "function"
        },
        {
            "constant": true,
            "inputs": [],
            "name": "marginRate",
            "outputs": [
                {
                    "internalType": "uint8",
                    "name": "",
                    "type": "uint8"
                }
            ],
            "payable": false,
            "stateMutability": "view",
            "type": "function"
        },
        {
            "constant": true,
            "inputs": [],
            "name": "name",
            "outputs": [
                {
                    "internalType": "string",
                    "name": "",
                    "type": "string"
                }
            ],
            "payable": false,
            "stateMutability": "view",
            "type": "function"
        },
        {
            "constant": true,
            "inputs": [],
            "name": "orderDirection",
            "outputs": [
                {
                    "internalType": "uint8",
                    "name": "",
                    "type": "uint8"
                }
            ],
            "payable": false,
            "stateMutability": "view",
            "type": "function"
        },
        {
            "constant": true,
            "inputs": [],
            "name": "safuAddress",
            "outputs": [
                {
                    "internalType": "address",
                    "name": "",
                    "type": "address"
                }
            ],
            "payable": false,
            "stateMutability": "view",
            "type": "function"
        },
        {
            "constant": true,
            "inputs": [],
            "name": "safuBalance",
            "outputs": [
                {
                    "internalType": "int256",
                    "name": "",
                    "type": "int256"
                }
            ],
            "payable": false,
            "stateMutability": "view",
            "type": "function"
        },
        {
            "constant": true,
            "inputs": [],
            "name": "strikeAsset",
            "outputs": [
                {
                    "internalType": "contract IERC20",
                    "name": "",
                    "type": "address"
                }
            ],
            "payable": false,
            "stateMutability": "view",
            "type": "function"
        },
        {
            "constant": true,
            "inputs": [],
            "name": "strikeAssetDecimal",
            "outputs": [
                {
                    "internalType": "uint256",
                    "name": "",
                    "type": "uint256"
                }
            ],
            "payable": false,
            "stateMutability": "view",
            "type": "function"
        },
        {
            "constant": true,
            "inputs": [],
            "name": "strikePrice",
            "outputs": [
                {
                    "internalType": "uint256",
                    "name": "",
                    "type": "uint256"
                }
            ],
            "payable": false,
            "stateMutability": "view",
            "type": "function"
        },
        {
            "constant": true,
            "inputs": [],
            "name": "symbol",
            "outputs": [
                {
                    "internalType": "string",
                    "name": "",
                    "type": "string"
                }
            ],
            "payable": false,
            "stateMutability": "view",
            "type": "function"
        },
        {
            "constant": true,
            "inputs": [],
            "name": "systemPaused",
            "outputs": [
                {
                    "internalType": "bool",
                    "name": "",
                    "type": "bool"
                }
            ],
            "payable": false,
            "stateMutability": "view",
            "type": "function"
        },
        {
            "constant": true,
            "inputs": [],
            "name": "systemStatus",
            "outputs": [
                {
                    "internalType": "uint8",
                    "name": "",
                    "type": "uint8"
                }
            ],
            "payable": false,
            "stateMutability": "view",
            "type": "function"
        },
        {
            "constant": true,
            "inputs": [],
            "name": "totalSupply",
            "outputs": [
                {
                    "internalType": "uint256",
                    "name": "",
                    "type": "uint256"
                }
            ],
            "payable": false,
            "stateMutability": "view",
            "type": "function"
        },
        {
            "constant": false,
            "inputs": [
                {
                    "internalType": "address",
                    "name": "recipient",
                    "type": "address"
                },
                {
                    "internalType": "uint256",
                    "name": "amount",
                    "type": "uint256"
                }
            ],
            "name": "transfer",
            "outputs": [
                {
                    "internalType": "bool",
                    "name": "",
                    "type": "bool"
                }
            ],
            "payable": false,
            "stateMutability": "nonpayable",
            "type": "function"
        },
        {
            "constant": false,
            "inputs": [
                {
                    "internalType": "address",
                    "name": "sender",
                    "type": "address"
                },
                {
                    "internalType": "address",
                    "name": "recipient",
                    "type": "address"
                },
                {
                    "internalType": "uint256",
                    "name": "amount",
                    "type": "uint256"
                }
            ],
            "name": "transferFrom",
            "outputs": [
                {
                    "internalType": "bool",
                    "name": "",
                    "type": "bool"
                }
            ],
            "payable": false,
            "stateMutability": "nonpayable",
            "type": "function"
        },
        {
            "constant": true,
            "inputs": [],
            "name": "underlyingAsset",
            "outputs": [
                {
                    "internalType": "contract IERC20",
                    "name": "",
                    "type": "address"
                }
            ],
            "payable": false,
            "stateMutability": "view",
            "type": "function"
        },
        {
            "constant": true,
            "inputs": [],
            "name": "underlyingAssetDecimal",
            "outputs": [
                {
                    "internalType": "uint256",
                    "name": "",
                    "type": "uint256"
                }
            ],
            "payable": false,
            "stateMutability": "view",
            "type": "function"
        },
        {
            "constant": true,
            "inputs": [],
            "name": "uniswapFactoryAddress",
            "outputs": [
                {
                    "internalType": "address",
                    "name": "",
                    "type": "address"
                }
            ],
            "payable": false,
            "stateMutability": "view",
            "type": "function"
        },
        {
            "constant": true,
            "inputs": [
                {
                    "internalType": "address",
                    "name": "",
                    "type": "address"
                }
            ],
            "name": "vaultBalance",
            "outputs": [
                {
                    "internalType": "uint256",
                    "name": "",
                    "type": "uint256"
                }
            ],
            "payable": false,
            "stateMutability": "view",
            "type": "function"
        },
        {
            "constant": true,
            "inputs": [],
            "name": "hasExpired",
            "outputs": [
                {
                    "internalType": "bool",
                    "name": "",
                    "type": "bool"
                }
            ],
            "payable": false,
            "stateMutability": "view",
            "type": "function"
        },
        {
            "constant": false,
            "inputs": [
                {
                    "internalType": "uint256",
                    "name": "amount",
                    "type": "uint256"
                }
            ],
            "name": "mint",
            "outputs": [],
            "payable": false,
            "stateMutability": "nonpayable",
            "type": "function"
        },
        {
            "constant": false,
            "inputs": [
                {
                    "internalType": "uint256",
                    "name": "amount",
                    "type": "uint256"
                }
            ],
            "name": "burn",
            "outputs": [],
            "payable": false,
            "stateMutability": "nonpayable",
            "type": "function"
        },
        {
            "constant": true,
            "inputs": [],
            "name": "underlyingBalanceOf",
            "outputs": [
                {
                    "internalType": "uint256",
                    "name": "",
                    "type": "uint256"
                }
            ],
            "payable": false,
            "stateMutability": "view",
            "type": "function"
        },
        {
            "constant": true,
            "inputs": [],
            "name": "strikeBalance",
            "outputs": [
                {
                    "internalType": "uint256",
                    "name": "",
                    "type": "uint256"
                }
            ],
            "payable": false,
            "stateMutability": "view",
            "type": "function"
        },
        {
            "constant": false,
            "inputs": [
                {
                    "internalType": "uint256",
                    "name": "amount",
                    "type": "uint256"
                }
            ],
            "name": "exercise",
            "outputs": [],
            "payable": false,
            "stateMutability": "nonpayable",
            "type": "function"
        },
        {
            "constant": false,
            "inputs": [],
            "name": "withdraw",
            "outputs": [],
            "payable": false,
            "stateMutability": "nonpayable",
            "type": "function"
        }
    ],
    "bytecode": "0x608060405260058054600160b01b60ff60b01b199091161761ffff60b81b19169055600e805461ffff1916610c001790553480156200003d57600080fd5b5060405162001ffa38038062001ffa83398181016040526101008110156200006457600080fd5b81019080805160405193929190846401000000008211156200008557600080fd5b9083019060208201858111156200009b57600080fd5b8251640100000000811182820188101715620000b657600080fd5b82525081516020918201929091019080838360005b83811015620000e5578181015183820152602001620000cb565b50505050905090810190601f168015620001135780820380516001836020036101000a031916815260200191505b50604052602001805160405193929190846401000000008211156200013757600080fd5b9083019060208201858111156200014d57600080fd5b82516401000000008111828201881017156200016857600080fd5b82525081516020918201929091019080838360005b83811015620001975781810151838201526020016200017d565b50505050905090810190601f168015620001c55780820380516001836020036101000a031916815260200191505b506040908152602082810151918301516060840151608085015160a086015160c0909601518a519598509296509094909390928991899160129162000211916003919086019062000295565b5081516200022790600490602085019062000295565b506005805461010060ff1990911660ff9384161761ff001916179055600980546001600160a01b03199081166001600160a01b039b8c1617909155978116600a55600b8054909816969098169590951790955591909416600c55600d939093555050600855506200033a9050565b828054600181600116156101000203166002900490600052602060002090601f016020900481019282601f10620002d857805160ff191683800117855562000308565b8280016001018555821562000308579182015b8281111562000308578251825591602001919060010190620002eb565b50620003169291506200031a565b5090565b6200033791905b8082111562000316576000815560010162000321565b90565b611cb0806200034a6000396000f3fe608060405234801561001057600080fd5b50600436106102275760003560e01c806370a0823111610130578063a8dd9fcb116100b8578063c52987cf1161007c578063c52987cf14610516578063dc9a15351461051e578063dd62ed3e14610526578063e5adac3d14610554578063ed0fe4161461055c57610227565b8063a8dd9fcb146104b5578063a9059cbb146104bd578063ab9068d2146104e9578063b07f0a41146104f1578063b66a5e4c1461050e57610227565b806395d89b41116100ff57806395d89b41146104545780639cd7a1c41461045c5780639d2f83f014610464578063a0712d681461046c578063a457c2d71461048957610227565b806370a08231146104165780637158da7c1461043c57806376316ba61461044457806390e64d131461044c57610227565b80633655ac3c116101b3578063439282e211610182578063439282e2146103ee57806356e2e0f1146103f657806361b786c8146103fe57806364cb907c1461040657806365553ce21461040e57610227565b80633655ac3c14610393578063395093511461039b5780633ccfd60b146103c757806342966c68146103d157610227565b806318160ddd116101fa57806318160ddd146103275780631ad80de61461032f57806323b872dd14610337578063301b215a1461036d578063313ce5671461037557610227565b806306fdde031461022c578063095ea7b3146102a95780630d353cee146102e957806317d69bc814610303575b600080fd5b610234610582565b6040805160208082528351818301528351919283929083019185019080838360005b8381101561026e578181015183820152602001610256565b50505050905090810190601f16801561029b5780820380516001836020036101000a031916815260200191505b509250505060405180910390f35b6102d5600480360360408110156102bf57600080fd5b506001600160a01b038135169060200135610618565b604080519115158252519081900360200190f35b6102f1610636565b60408051918252519081900360200190f35b61030b61063c565b604080516001600160a01b039092168252519081900360200190f35b6102f161064b565b6102f1610651565b6102d56004803603606081101561034d57600080fd5b506001600160a01b03813581169160208101359091169060400135610657565b6102f16106e4565b61037d6106ea565b6040805160ff9092168252519081900360200190f35b61030b6106f3565b6102d5600480360360408110156103b157600080fd5b506001600160a01b038135169060200135610708565b6103cf61075c565b005b6103cf600480360360208110156103e757600080fd5b50356107c9565b61030b610a14565b6102f1610a23565b61037d610a29565b61037d610a2e565b61037d610a3e565b6102f16004803603602081101561042c57600080fd5b50356001600160a01b0316610a43565b61030b610a5e565b61037d610a6d565b6102d5610a7b565b610234610a8a565b6102f1610aeb565b6102d5610b67565b6103cf6004803603602081101561048257600080fd5b5035610b77565b6102d56004803603604081101561049f57600080fd5b506001600160a01b038135169060200135610d7d565b61037d610deb565b6102d5600480360360408110156104d357600080fd5b506001600160a01b038135169060200135610df0565b6102f1610e04565b6103cf6004803603602081101561050757600080fd5b5035610e4f565b61037d611069565b6102f161106e565b6102d5611074565b6102f16004803603604081101561053c57600080fd5b506001600160a01b038135811691602001351661107d565b61037d6110a8565b6102f16004803603602081101561057257600080fd5b50356001600160a01b03166110b8565b60038054604080516020601f600260001961010060018816150201909516949094049384018190048102820181019092528281526060939092909183018282801561060e5780601f106105e35761010080835404028352916020019161060e565b820191906000526020600020905b8154815290600101906020018083116105f157829003601f168201915b5050505050905090565b600061062c6106256110ca565b84846110ce565b5060015b92915050565b60075481565b600b546001600160a01b031681565b60025490565b600a5481565b60006106648484846111ba565b6106da846106706110ca565b6106d585604051806060016040528060288152602001611b1a602891396001600160a01b038a166000908152600160205260408120906106ae6110ca565b6001600160a01b03168152602081019190915260400160002054919063ffffffff61131616565b6110ce565b5060019392505050565b600c5481565b60055460ff1690565b6005546201000090046001600160a01b031681565b600061062c6107156110ca565b846106d585600160006107266110ca565b6001600160a01b03908116825260208083019390935260409182016000908120918c16815292529020549063ffffffff6113ad16565b61076461140e565b6107ae576040805162461bcd60e51b815260206004820152601660248201527513dc1d1a5bdb881a185cc81b9bdd08195e1c1a5c995960521b604482015290519081900360640190fd5b336000908152600f60205260409020546107c790611417565b565b6107d161140e565b15610818576040805162461bcd60e51b815260206004820152601260248201527113dc1d1a5bdb881a185cc8195e1c1a5c995960721b604482015290519081900360640190fd5b600554610100900460ff16610874576040805162461bcd60e51b815260206004820152601f60248201527f5265656e7472616e637947756172643a207265656e7472616e742063616c6c00604482015290519081900360640190fd5b6005805461ff0019169055336000908152600f60205260409020548111156108cd5760405162461bcd60e51b8152600401808060200182810382526021815260200180611b426021913960400191505060405180910390fd5b336000908152600f60205260409020546108ed908263ffffffff6116bd16565b336000818152600f60205260409020919091556109219061091c83670de0b6b3a764000063ffffffff6116ff16565b611758565b600b54600d546001600160a01b039091169063a9059cbb90339061094c90859063ffffffff6116ff16565b6040518363ffffffff1660e01b815260040180836001600160a01b03166001600160a01b0316815260200182815260200192505050602060405180830381600087803b15801561099b57600080fd5b505af11580156109af573d6000803e3d6000fd5b505050506040513d60208110156109c557600080fd5b5051610a025760405162461bcd60e51b8152600401808060200182810382526029815260200180611c066029913960400191505060405180910390fd5b506005805461ff001916610100179055565b6006546001600160a01b031681565b60085481565b600181565b600554600160b81b900460ff1681565b600b81565b6001600160a01b031660009081526020819052604090205490565b6009546001600160a01b031681565b600e54610100900460ff1681565b6000610a8561140e565b905090565b60048054604080516020601f600260001961010060018816150201909516949094049384018190048102820181019092528281526060939092909183018282801561060e5780601f106105e35761010080835404028352916020019161060e565b600954604080516370a0823160e01b815230600482015290516000926001600160a01b0316916370a08231916024808301926020929190829003018186803b158015610b3657600080fd5b505afa158015610b4a573d6000803e3d6000fd5b505050506040513d6020811015610b6057600080fd5b5051905090565b600554600160c01b900460ff1681565b610b7f61140e565b15610bc6576040805162461bcd60e51b815260206004820152601260248201527113dc1d1a5bdb881a185cc8195e1c1a5c995960721b604482015290519081900360640190fd5b600554610100900460ff16610c22576040805162461bcd60e51b815260206004820152601f60248201527f5265656e7472616e637947756172643a207265656e7472616e742063616c6c00604482015290519081900360640190fd5b6005805461ff0019169055600b54600d546001600160a01b03909116906323b872dd9033903090610c5a90869063ffffffff6116ff16565b6040518463ffffffff1660e01b815260040180846001600160a01b03166001600160a01b03168152602001836001600160a01b03166001600160a01b031681526020018281526020019350505050602060405180830381600087803b158015610cc257600080fd5b505af1158015610cd6573d6000803e3d6000fd5b505050506040513d6020811015610cec57600080fd5b5051610d295760405162461bcd60e51b8152600401808060200182810382526028815260200180611c2f6028913960400191505060405180910390fd5b336000908152600f6020526040902054610d49908263ffffffff6113ad16565b336000818152600f6020526040902091909155610a0290610d7883670de0b6b3a764000063ffffffff6116ff16565b611854565b600061062c610d8a6110ca565b846106d585604051806060016040528060258152602001611c576025913960016000610db46110ca565b6001600160a01b03908116825260208083019390935260409182016000908120918d1681529252902054919063ffffffff61131616565b600c81565b600061062c610dfd6110ca565b84846111ba565b600b54604080516370a0823160e01b815230600482015290516000926001600160a01b0316916370a08231916024808301926020929190829003018186803b158015610b3657600080fd5b610e5761140e565b15610e9e576040805162461bcd60e51b815260206004820152601260248201527113dc1d1a5bdb881a185cc8195e1c1a5c995960721b604482015290519081900360640190fd5b600a8054600954604080516323b872dd60e01b81523360048201523060248201529290930a84026044830181905292516001600160a01b03909116916323b872dd9160648083019260209291908290030181600087803b158015610f0157600080fd5b505af1158015610f15573d6000803e3d6000fd5b505050506040513d6020811015610f2b57600080fd5b5051610f685760405162461bcd60e51b815260040180806020018281038252602a815260200180611a0a602a913960400191505060405180910390fd5b610f843361091c84670de0b6b3a764000063ffffffff6116ff16565b600b54600d546001600160a01b039091169063a9059cbb903390610faf90869063ffffffff6116ff16565b6040518363ffffffff1660e01b815260040180836001600160a01b03166001600160a01b0316815260200182815260200192505050602060405180830381600087803b158015610ffe57600080fd5b505af1158015611012573d6000803e3d6000fd5b505050506040513d602081101561102857600080fd5b50516110655760405162461bcd60e51b8152600401808060200182810382526026815260200180611a9e6026913960400191505060405180910390fd5b5050565b600081565b600d5481565b600e5460ff1681565b6001600160a01b03918216600090815260016020908152604080832093909416825291909152205490565b600554600160b01b900460ff1681565b600f6020526000908152604090205481565b3390565b6001600160a01b0383166111135760405162461bcd60e51b8152600401808060200182810382526024815260200180611ba96024913960400191505060405180910390fd5b6001600160a01b0382166111585760405162461bcd60e51b8152600401808060200182810382526022815260200180611a566022913960400191505060405180910390fd5b6001600160a01b03808416600081815260016020908152604080832094871680845294825291829020859055815185815291517f8c5be1e5ebec7d5bd14f71427d1e84f3dd0314c0f7b2291e5b200ac8c7c3b9259281900390910190a3505050565b6001600160a01b0383166111ff5760405162461bcd60e51b8152600401808060200182810382526025815260200180611b846025913960400191505060405180910390fd5b6001600160a01b0382166112445760405162461bcd60e51b81526004018080602001828103825260238152602001806119e76023913960400191505060405180910390fd5b61128781604051806060016040528060268152602001611a78602691396001600160a01b038616600090815260208190526040902054919063ffffffff61131616565b6001600160a01b0380851660009081526020819052604080822093909355908416815220546112bc908263ffffffff6113ad16565b6001600160a01b038084166000818152602081815260409182902094909455805185815290519193928716927fddf252ad1be2c89b69c2b068fc378daa952ba7f163c4a11628f55a4df523b3ef92918290030190a3505050565b600081848411156113a55760405162461bcd60e51b81526004018080602001828103825283818151815260200191508051906020019080838360005b8381101561136a578181015183820152602001611352565b50505050905090810190601f1680156113975780820380516001836020036101000a031916815260200191505b509250505060405180910390fd5b505050900390565b600082820183811015611407576040805162461bcd60e51b815260206004820152601b60248201527f536166654d6174683a206164646974696f6e206f766572666c6f770000000000604482015290519081900360640190fd5b9392505050565b60085443101590565b600b54604080516370a0823160e01b815230600482015290516000926001600160a01b0316916370a08231916024808301926020929190829003018186803b15801561146257600080fd5b505afa158015611476573d6000803e3d6000fd5b505050506040513d602081101561148c57600080fd5b5051600d549091506000906114a890849063ffffffff6116ff16565b90506000828211156115055760006114cb600d548561194490919063ffffffff16565b90506114e2600d54826116ff90919063ffffffff16565b600a805491945082870391611500918391900a63ffffffff6116ff16565b925050505b336000908152600f6020526040902054611525908563ffffffff6116bd16565b336000908152600f602052604090205581156115f657600b546040805163a9059cbb60e01b81523360048201526024810185905290516001600160a01b039092169163a9059cbb916044808201926020929091908290030181600087803b15801561158f57600080fd5b505af11580156115a3573d6000803e3d6000fd5b505050506040513d60208110156115b957600080fd5b50516115f65760405162461bcd60e51b8152600401808060200182810382526035815260200180611ac46035913960400191505060405180910390fd5b80156116b7576009546040805163a9059cbb60e01b81523360048201526024810184905290516001600160a01b039092169163a9059cbb916044808201926020929091908290030181600087803b15801561165057600080fd5b505af1158015611664573d6000803e3d6000fd5b505050506040513d602081101561167a57600080fd5b50516116b75760405162461bcd60e51b8152600401808060200182810382526039815260200180611bcd6039913960400191505060405180910390fd5b50505050565b600061140783836040518060400160405280601e81526020017f536166654d6174683a207375627472616374696f6e206f766572666c6f770000815250611316565b60008261170e57506000610630565b8282028284828161171b57fe5b04146114075760405162461bcd60e51b8152600401808060200182810382526021815260200180611af96021913960400191505060405180910390fd5b6001600160a01b03821661179d5760405162461bcd60e51b8152600401808060200182810382526021815260200180611b636021913960400191505060405180910390fd5b6117e081604051806060016040528060228152602001611a34602291396001600160a01b038516600090815260208190526040902054919063ffffffff61131616565b6001600160a01b03831660009081526020819052604090205560025461180c908263ffffffff6116bd16565b6002556040805182815290516000916001600160a01b038516917fddf252ad1be2c89b69c2b068fc378daa952ba7f163c4a11628f55a4df523b3ef9181900360200190a35050565b6001600160a01b0382166118af576040805162461bcd60e51b815260206004820152601f60248201527f45524332303a206d696e7420746f20746865207a65726f206164647265737300604482015290519081900360640190fd5b6002546118c2908263ffffffff6113ad16565b6002556001600160a01b0382166000908152602081905260409020546118ee908263ffffffff6113ad16565b6001600160a01b0383166000818152602081815260408083209490945583518581529351929391927fddf252ad1be2c89b69c2b068fc378daa952ba7f163c4a11628f55a4df523b3ef9281900390910190a35050565b600061140783836040518060400160405280601a81526020017f536166654d6174683a206469766973696f6e206279207a65726f000000000000815250600081836119d05760405162461bcd60e51b815260206004820181815283516024840152835190928392604490910191908501908083836000831561136a578181015183820152602001611352565b5060008385816119dc57fe5b049594505050505056fe45524332303a207472616e7366657220746f20746865207a65726f20616464726573734552524f523a207472616e7366657220756e6465726c79696e6720746f6b656e2066726f6d207573657245524332303a206275726e20616d6f756e7420657863656564732062616c616e636545524332303a20617070726f766520746f20746865207a65726f206164647265737345524332303a207472616e7366657220616d6f756e7420657863656564732062616c616e63654552524f523a207472616e7366657220737472696b6520746f6b656e20746f2063616c6c65724552524f523a20436f756c646e2774207472616e73666572206261636b20737472696b6520746f6b656e7320746f2063616c6c6572536166654d6174683a206d756c7469706c69636174696f6e206f766572666c6f7745524332303a207472616e7366657220616d6f756e74206578636565647320616c6c6f77616e63654552524f523a20776974686472617720616d6f756e74206e6f7420656e6f75676845524332303a206275726e2066726f6d20746865207a65726f206164647265737345524332303a207472616e736665722066726f6d20746865207a65726f206164647265737345524332303a20617070726f76652066726f6d20746865207a65726f20616464726573734552524f523a20436f756c646e2774207472616e73666572206261636b20756e6465726c79696e6720746f6b656e7320746f2063616c6c65724552524f523a20737472696b652061737365742063616e206e6f74207472616e73666572206261636b4552524f523a20737472696b65206173736574207472616e736665722066726f6d2073656e64657245524332303a2064656372656173656420616c6c6f77616e63652062656c6f77207a65726fa265627a7a72315820a375c1a5aedd639a5814bbe62df199c82ffcf9f5edbbca61ea7ba0aeb55a5a6264736f6c63430005110032",
    "source": "pragma solidity 0.5.17;\n\nimport \"@openzeppelin/contracts/token/ERC20/ERC20.sol\";\nimport \"@openzeppelin/contracts/token/ERC20/IERC20.sol\";\nimport \"@openzeppelin/contracts/token/ERC20/ERC20Detailed.sol\";\nimport \"@openzeppelin/contracts/math/SafeMath.sol\";\nimport \"@openzeppelin/contracts/utils/ReentrancyGuard.sol\";\n\nimport \"./Storage.sol\";\n\ncontract NsurePutToken is ERC20, ERC20Detailed, ReentrancyGuard, Storage {\n    using SafeMath for uint256;\n\n    //\n    uint256 public expirationBlockNumber;\n\n    //, WETH\n    IERC20 public underlyingAsset;\n    //\n    uint256 public underlyingAssetDecimal;\n\n    //, USDC\n    IERC20 public strikeAsset;\n    //\n    uint256 public strikeAssetDecimal;\n\n    //\n    uint256 public strikePrice;\n\n    //\n    bool public isPublic = false;\n\n    //put option\n    uint8 public orderDirection = ORDER_OPTION_PUT;\n\n    //vault\n    //key: user, value: strike asset\n    mapping(address => uint256) public vaultBalance;\n\n    constructor(\n        string memory _name,\n        string memory _symbol,\n        //\n        IERC20 _underlyingAsset,\n        //\n        uint8 _underlyingAssetDecimal,\n        //\n        IERC20 _strikeAsset,\n        //\n        uint8 _strikeAssetDecimal,\n        //\n        uint256 _strikePrice,\n        //\n        uint256 _expirationBlockNumber\n    ) public ERC20Detailed(_name, _symbol, 18) {\n        underlyingAsset = _underlyingAsset;\n        underlyingAssetDecimal = _underlyingAssetDecimal;\n        strikeAsset = _strikeAsset;\n        strikeAssetDecimal = _strikeAssetDecimal;\n        strikePrice = _strikePrice;\n        expirationBlockNumber = _expirationBlockNumber;\n    }\n\n    //\n    function hasExpired() external view returns (bool) {\n        return _hasExpired();\n    }\n\n    //true\n    modifier notExpired() {\n        if (_hasExpired()) {\n            revert(\"Option has expired\");\n        }\n        _;\n    }\n\n    //true\n    modifier alreadyExpired() {\n        if (!_hasExpired()) {\n            revert(\"Option has not expired\");\n        }\n        _;\n    }\n\n    //mint USDCToken\n    //Strike AssetVault\n    function mint(uint256 amount) public notExpired nonReentrant {\n        require(\n            //USDC\n            strikeAsset.transferFrom(\n                msg.sender,\n                address(this),\n                amount.mul(strikePrice)\n            ),\n            \"ERROR: strike asset transfer from sender\"\n        );\n\n        //USDC\n        vaultBalance[msg.sender] = vaultBalance[msg.sender].add(amount);\n\n        //NsurePutToken\n        _mint(msg.sender, amount.mul(XONE));\n    }\n\n    //withdraw USDCToken\n    //Strike Asset\n    function burn(uint256 amount) public notExpired nonReentrant {\n        require(\n            //USDC > withdraw\n            amount <= vaultBalance[msg.sender],\n            \"ERROR: withdraw amount not enough\"\n        );\n\n        //withdrawUSDC\n        vaultBalance[msg.sender] = vaultBalance[msg.sender].sub(amount);\n\n        //burnNsurePutToken\n        _burn(msg.sender, amount.mul(XONE));\n\n        require(\n            //USDC\n            strikeAsset.transfer(msg.sender, amount.mul(strikePrice)),\n            \"ERROR: strike asset can not transfer back\"\n        );\n    }\n\n    //the amount of underlying token locked in this contract\n    function underlyingBalanceOf() external view returns (uint256) {\n        return underlyingAsset.balanceOf(address(this));\n    }\n\n    //the amount of strike token locked in this contract\n    function strikeBalance() external view returns (uint256) {\n        return strikeAsset.balanceOf(address(this));\n    }\n\n    //strike asset\n    //strike assetunderlying asset\n    //amount: underlying asset\n    function exercise(uint256 amount) external notExpired {\n        uint256 underlyingAmount = amount * 10**uint256(underlyingAssetDecimal);\n        require(\n            underlyingAsset.transferFrom(\n                msg.sender,\n                address(this),\n                underlyingAmount\n            ),\n            \"ERROR: transfer underlying token from user\"\n        );\n\n        _burn(msg.sender, amount.mul(XONE));\n\n        require(\n            strikeAsset.transfer(msg.sender, amount.mul(strikePrice)),\n            \"ERROR: transfer strike token to caller\"\n        );\n    }\n\n    //\n    function withdraw() external alreadyExpired {\n        _redeem(vaultBalance[msg.sender]);\n    }\n\n    //amount: NsureToken\n    function _redeem(uint256 amount) internal {\n        // Calculates how many underlying/strike tokens the caller will get back\n        //strike asset\n        uint256 currentStrikeBalance = strikeAsset.balanceOf(address(this));\n        //strike assetNsureToken amount * strikePrice\n        uint256 strikeToReceive = amount.mul(strikePrice);\n        uint256 underlyingToReceive = 0;\n        if (strikeToReceive > currentStrikeBalance) {\n            // Ensure integer division and rounding\n            uint256 strikeAmount = currentStrikeBalance.div(strikePrice);\n            strikeToReceive = strikeAmount.mul(strikePrice);\n\n            uint256 underlyingAmount = amount - strikeAmount;\n            underlyingToReceive = underlyingAmount.mul(\n                10**uint256(underlyingAssetDecimal)\n            );\n        }\n\n        // Unlocks the underlying token\n        vaultBalance[msg.sender] = vaultBalance[msg.sender].sub(amount);\n        if (strikeToReceive > 0) {\n            require(\n                strikeAsset.transfer(msg.sender, strikeToReceive),\n                \"ERROR: Couldn't transfer back strike tokens to caller\"\n            );\n        }\n        if (underlyingToReceive > 0) {\n            require(\n                underlyingAsset.transfer(msg.sender, underlyingToReceive),\n                \"ERROR: Couldn't transfer back underlying tokens to caller\"\n            );\n        }\n    }\n\n    //Current Profit and Loss: strikePrice - spotPrice - premiumPrice\n    // function curProfitAndLoss(uint256 spotPrice, uint256 premiumPrice)\n    //     external\n    //     alreadyExpired\n    //     returns (int256)\n    // {\n    //     int256 pnl = 0;\n    //     if (strikePrice >= spotPrice.add(premiumPrice)) {\n    //         pnl = strikePrice.sub(spotPrice).sub(premiumPrice);\n    //     } else {\n    //         pnl = spotPrice.add(premiumPrice).sub(strikePrice).mul(-1);\n    //     }\n\n    //     return pnl;\n    // }\n\n    function _hasExpired() internal view returns (bool) {\n        return block.number >= expirationBlockNumber;\n    }\n}\n",
    "sourcePath": "/Users/bytedance/github/xnsure-protocol/contracts/NsurePutToken.sol",
    "compiler": {
        "name": "solc",
        "version": "0.5.17+commit.d19bba13.Emscripten.clang"
    },
    "schemaVersion": "3.3.1",
    "updatedAt": "2020-11-13T17:09:27.655Z",
    "networkType": "ethereum",
    "devdoc": {
        "methods": {
            "allowance(address,address)": {
                "details": "See {IERC20-allowance}."
            },
            "approve(address,uint256)": {
                "details": "See {IERC20-approve}.     * Requirements:     * - `spender` cannot be the zero address."
            },
            "balanceOf(address)": {
                "details": "See {IERC20-balanceOf}."
            },
            "decimals()": {
                "details": "Returns the number of decimals used to get its user representation. For example, if `decimals` equals `2`, a balance of `505` tokens should be displayed to a user as `5,05` (`505 / 10 ** 2`).     * Tokens usually opt for a value of 18, imitating the relationship between Ether and Wei.     * NOTE: This information is only used for _display_ purposes: it in no way affects any of the arithmetic of the contract, including {IERC20-balanceOf} and {IERC20-transfer}."
            },
            "decreaseAllowance(address,uint256)": {
                "details": "Atomically decreases the allowance granted to `spender` by the caller.     * This is an alternative to {approve} that can be used as a mitigation for problems described in {IERC20-approve}.     * Emits an {Approval} event indicating the updated allowance.     * Requirements:     * - `spender` cannot be the zero address. - `spender` must have allowance for the caller of at least `subtractedValue`."
            },
            "increaseAllowance(address,uint256)": {
                "details": "Atomically increases the allowance granted to `spender` by the caller.     * This is an alternative to {approve} that can be used as a mitigation for problems described in {IERC20-approve}.     * Emits an {Approval} event indicating the updated allowance.     * Requirements:     * - `spender` cannot be the zero address."
            },
            "name()": {
                "details": "Returns the name of the token."
            },
            "symbol()": {
                "details": "Returns the symbol of the token, usually a shorter version of the name."
            },
            "totalSupply()": {
                "details": "See {IERC20-totalSupply}."
            },
            "transfer(address,uint256)": {
                "details": "See {IERC20-transfer}.     * Requirements:     * - `recipient` cannot be the zero address. - the caller must have a balance of at least `amount`."
            },
            "transferFrom(address,address,uint256)": {
                "details": "See {IERC20-transferFrom}.     * Emits an {Approval} event indicating the updated allowance. This is not required by the EIP. See the note at the beginning of {ERC20};     * Requirements: - `sender` and `recipient` cannot be the zero address. - `sender` must have a balance of at least `amount`. - the caller must have allowance for `sender`'s tokens of at least `amount`."
            }
        }
    },
    "userdoc": {
        "methods": {}
    }
}